:020000040800F2
:1000000008160020A1010008712500087B200008C7
:100010006D250008FD0200085132000800000000B4
:100020000000000000000000000000001D26000885
:100030001103000800000000752500088126000853
:10004000BB010008BB010008BB010008BB010008A0
:10005000BB010008BB010008BB010008BB01000890
:10006000BB010008BB010008BB010008BB01000880
:10007000BB010008BB010008BB010008BB01000870
:10008000BB010008BB010008BB010008BB01000860
:1000900001030008BB010008BB010008BB01000808
:1000A000BB010008BB010008BB010008BB01000840
:1000B000BB010008BB010008BB010008BB01000830
:1000C000BB010008BB010008BB010008BB01000820
:1000D000BB010008BB010008BB010008BB01000810
:1000E000BB010008BB010008BB010008BB01000800
:1000F000BB010008BB010008BB010008BB010008F0
:10010000BB010008BB010008BB010008BB010008DF
:10011000BB010008BB010008BB010008BB010008CF
:10012000BB010008BB010008BB010008BB010008BF
:10013000BB010008BB010008BB010008BB010008AF
:10014000BB010008BB010008BB010008BB0100089F
:10015000BB010008BB010008BB010008BB0100088F
:10016000BB010008BB010008BB010008BB0100087F
:10017000BB010008BB010008BB0100080000000033
:10018000BB010008BB010008DFF810D000F0A4F8A4
:100190000048004765340008AFF3008008160020CF
:1001A0000648804706480047FEE7FEE7FEE7FEE711
:1001B000FEE7FEE7FEE7FEE7FEE7FEE73D27000875
:1001C000890100082DE9F05F0546002092469B4614
:1001D00088460646814640241BE02846414647465D
:1001E000224600F069F853465A46C01A914110D38E
:1001F00011461846224600F050F82D1A67EB010808
:100200004F4622460120002100F047F817EB000975
:100210004E41201EA4F10104DFDC484631462A4647
:100220004346BDE8F09F40EA01039B0703D009E085
:1002300008C9121F08C0042AFAD203E011F8013BD2
:1002400000F8013B521EF9D27047D2B201E000F82B
:10025000012B491EFBD270470022F6E710B513466A
:100260000A4604461946FFF7F0FF204610BD30B598
:100270000B46014600202022012409E021FA02F564
:100280009D4205D303FA02F5491B04FA02F52844FE
:10029000151EA2F10102F1DC30BD202A04DB203A58
:1002A00000FA02F1002070479140C2F1200320FAC9
:1002B00003F3194390407047202A04DB203A21FAC7
:1002C00002F00021704721FA02F3D040C2F120026F
:1002D0009140084319467047064C074D06E0E06818
:1002E00040F0010394E8070098471034AC42F6D37D
:1002F000FFF74EFF743500089435000800BFFEE795
:1003000010B5024800F0EBFB10BD00009411002076
:10031000704772B600BFFEE710B5002201B909E0D0
:10032000012901D10A0205E0022901D10A0201E0F6
:100330004FF440720E4B1B6823F440730C4C236047
:1003400023461B681343236023461B6823F078036E
:10035000236023461B68022444EAC0042343044C60
:10036000236023461B6843F48033236010BD0000E4
:10037000103C02401C48006800F40070B0B11A48FC
:10038000006820F400701849086000BF0846006843
:1003900040F4006008600846006820F400600860CF
:1003A00000BF0846006840F4007008600E4800680E
:1003B00000F48060B0B10C48006820F480600A4905
:1003C000086000BF0846006840F480500860084696
:1003D000006820F48050086000BF0846006840F4C0
:1003E0008060086070470000003C02400A4A1268C2
:1003F00022F44072084B1A601A46126842F0040256
:100400001A601A4612684FF4803343EA00231A43F5
:10041000014B1A6070470000103C0240074A126806
:1004200022F44072054B1A601A4612681A601A4686
:10043000126842F001021A6001707047103C0240DD
:1004400010B50A49096821F44071084C2160214621
:10045000096841F4407121602146096841F00101B9
:1004600021600260BFF36F8F436010BD103C0240FB
:10047000084A126822F44072064B1A601A46126843
:1004800042F480721A601A46126842F001021A6041
:1004900001807047103C0240084A126822F4407202
:1004A000064B1A601A46126842F400721A601A4625
:1004B000126842F001021A6001607047103C02406D
:1004C0002348006800F0100040B12248C06940F0A5
:1004D00010002049C86110201D4908601C480068B0
:1004E00000F0200040B11B48C06940F008001949E5
:1004F000C8612020164908601548006800F04000D7
:1005000040B11448C06940F004001249C86140205D
:100510000F4908600E48006800F0800040B10D48A7
:10052000C06940F002000B49C8618020084908609A
:100530000748006800F0020040B10648C06940F07A
:1005400020000449C861022001490860704700008A
:100550000C3C02404400002070B5044600250020F9
:100560001449C86100F052FF054609E0601C38B12B
:1005700024B100F04BFF401BA04201D9032070BD05
:100580000D48006800F480300028EFD10A48006868
:1005900000F0010010B1012007490860064800681A
:1005A00000F0F20018B1FFF78BFF0120E7E7002011
:1005B000E5E70000440000200C3C024010B586B086
:1005C0000020009000F0FEFD00200190012002902C
:1005D000042003900820049002200590694601A899
:1005E00000F048FD044600F09BFD14B9012006B060
:1005F00010BD0020FBE700002DE9F84F05468846B6
:1006000016462B48854202D20020BDE8F88F002410
:1006100000F0D8FD45E0281900F00307E7B12819DC
:10062000A0EB0709D9F80000009005E018F80400D5
:100630000DF807007F1C641C042F01D2B442F5D3CF
:10064000002349460220009A00F074FD18B100F022
:1006500067FD0020D9E724E0301B042801D30420E3
:1006600001E0301BC0B281464FF0FF300090002007
:1006700006E0211818F801100DF80010411CC8B24E
:100680004845F6DB05EB040A002351460220009A98
:1006900000F050FD18B100F043FD0020B5E74C44D8
:1006A00000BFB442B7D300F03BFD0120ADE700002E
:1006B0000000010810B5024692F82030012B01D04D
:1006C000022B06D11068406908431468606100205D
:1006D00010BD506A40F4802050620120F8E7F0B568
:1006E00004460D461E4694F8207020688368A8686A
:1006F00000B900E000BF012F01D0022F7DD103F02F
:10070000806030B903F0006018B903F08050002811
:100710007ED0C3F30161012088403060A86860B9D1
:10072000B5F800C0E86840EA4C5C206800F5C0708D
:1007300000EB0110C0F800C00FE0D5E901C040EAAD
:10074000CC00D5F80CC040EA0C00D4F800C00CF581
:10075000C07C0CEB011CCCF80000D5F810C0206860
:1007600000F5C07000EB0110C0F804C0287D01281E
:100770000ED1206800F5C07000EB0110406840F415
:10078000807C206800F5C07000EB0110C0F804C048
:10079000D079000692F806C040EA0C4092F805C0F5
:1007A00040EA0C2092F804C040EA0C00D4F800C0E3
:1007B0000CF5C07C0CEB011CCCF80C00D0780006CA
:1007C00092F802C040EA0C4092F801C040EA0C20C6
:1007D00092F800C040EA0C00D4F800C00CF5C07CD0
:1007E0000CEB011CCCF80800206800F5C07000EB91
:1007F0000110006840F0010C01E00FE008E0206803
:1008000000F5C07000EB0110C0F800C00020F0BD82
:10081000606A40F4001060620120F8E7606A40F40A
:10082000802060620120F2E7F0B504460A4694F8A1
:100830002050012D01D0022D7ED1424901F50071D9
:10084000086840F001000860086820F47C500860E7
:100850000868566A40EA06200860107D00F01F060E
:10086000012000FA06F3C8699843C861A1F5007138
:10087000D069C8B9D1F80C029843C1F80C0290882D
:1008800080B2968940EA064601F51070576940F833
:100890003760108880B2168940EA064601F510706C
:1008A000576900EBC7004660D069012819D1D1F81B
:1008B0000C021843C1F80C02908880B2168840EAF6
:1008C000064601F51070576940F83760908980B28C
:1008D000168940EA064601F51070576900EBC7001B
:1008E0004660906928B9D1F804029843C1F804021F
:1008F00004E0D1F804021843C1F80402106928B9D1
:10090000D1F814029843C1F8140204E0D1F814029B
:100910001843C1F81402106A012804D1D1F81C024E
:100920001843C1F81C02D1F8000220F00100C1F800
:1009300000020020F0BDFFE7606A40F480206062A2
:100940000120F7E700640040704770B5044694F852
:100950002050012D01D0022D7DD151B92068C068F1
:1009600000F0030080B9606A40F40010606201206A
:1009700070BD2068006900F0030028B9606A40F487
:10098000001060620120F3E7206800F5D87000EBEA
:100990000110006800F004009060906840B9206881
:1009A00000F5D87000EB01100068400D106007E002
:1009B000206800F5D87000EB01100068C008506096
:1009C000206800F5D87000EB0110006800F002000C
:1009D000D060206800F5D87000EB0110406800F08E
:1009E0000F00082802D30820106108E0206800F5F5
:1009F000D87000EB0110406800F00F001061206813
:100A000000F5D87000EB0110406800F47F40000A48
:100A10009061206800F5D87000EB01104068000C70
:100A20005061206800F5D87000EB011080681870E4
:100A3000206800F5D87000EB0110806800F47F405A
:100A4000000A5870206800F5D87000EB011080682B
:100A500000F47F0000E03CE0000C9870206800F596
:100A6000D87000EB01108068000ED870206800F587
:100A7000D87000EB0110C0681871206800F5D870BC
:100A800000EB0110C06800F47F40000A5871206834
:100A900000F5D87000EB0110C06800F47F00000C76
:100AA0009871206800F5D87000EB0110C068000E46
:100AB000D87131B92068C06840F020002668F06025
:100AC00005E02068006940F02000266830610020C1
:100AD0004EE7606A40F480206062012048E72DE91B
:100AE000F05F04460025206846692068D0F804902D
:100AF000206887682068D0F80CA02068D0F810B073
:100B00002068D0F8188006F00100002855D007F0C2
:100B10000100C0B101202168886007F0020018B10F
:100B2000204600F064FA0EE007F0040010B145F42E
:100B3000006508E007F0080010B145F4805502E0B8
:100B4000204600F053FA07F48070C8B14FF480706B
:100B50002168886007F4007018B1204600F049FA57
:100B60000EE007F4806010B145F4005508E007F48A
:100B7000006010B145F4804502E0204600F038FAEC
:100B800007F48030C8B14FF480302168886007F4E2
:100B9000003018B1204600F02EFA0EE007F4802055
:100BA00010B145F4004508E007F4002010B145F409
:100BB000803502E0204600F01DFA06F0080038B14A
:100BC0000AF0100020B145F4007510202168C860BB
:100BD00006F0040040B10AF0080028B1082021689E
:100BE000C860204600F0A8F906F0020038B120687D
:100BF000C06800F0030010B1204600F09FF906F035
:100C0000400038B10BF0100020B145F48065102091
:100C10002168086106F0200040B10BF0080028B1FF
:100C2000082021680861204600F0AEF906F01000A7
:100C300038B12068006900F0030010B1204600F0D0
:100C4000A4F906F4003040B109F0100028B11020DA
:100C500021684860204600F099F906F4803040B1E0
:100C600009F0080028B1082021684860204600F0FB
:100C7000C3F906F4004088B309F0040078B306F421
:100C8000807020B108F0010008B145F0010506F4BC
:100C9000007020B108F0020008B145F0020506F42A
:100CA000806020B108F0040008B145F0040506F4A6
:100CB0000060A0B108F0700088B108F07000402812
:100CC00017D006DC10280BD020280CD0302819D1E2
:100CD0000CE0502810D0602814D110E01DE019E07D
:100CE00045F008050FE045F010050CE045F0200543
:100CF00009E045F0400506E045F0800503E045F4D5
:100D0000807500E000BF00BF2068806920F070009F
:100D1000216888610420216848602DB1606A2843F9
:100D200060622046FFF710FEBDE8F09F70B50446F4
:100D30000CB9012070BD94F8200010B9204600F0D5
:100D4000AFF82068006840F001002168086000F0FA
:100D50005DFB05460DE000F059FB401B0A2808D951
:100D6000606A40F400306062052084F820000120B1
:100D7000E0E72068406800F001000028EBD0206820
:100D8000006820F002002168086000F03FFB054683
:100D90000DE000F03BFB401B0A2808D9606A40F4D4
:100DA00000306062052084F820000120C2E720683E
:100DB000406800F002000028EBD1207E012806D117
:100DC0002068006840F080002168086005E0206825
:100DD000006820F0800021680860607E012806D14C
:100DE0002068006840F040002168086005E0206845
:100DF000006820F0400021680860A07E012806D12C
:100E00002068006840F020002168086005E0206844
:100E1000006820F0200021680860E07E012806D1EB
:100E20002068006820F010002168086005E0206854
:100E3000006840F0100021680860207F012806D17A
:100E40002068006840F008002168086005E020681C
:100E5000006820F0080021680860607F012806D142
:100E60002068006840F004002168086005E0206800
:100E7000006820F0040021680860D4E902010843FA
:100E800021690843616908436168491E0843216874
:100E9000C86100206062012084F82000002049E73A
:100EA00010B586B00446142101A8FFF7D5F91F49F3
:100EB0002068884238D100BF002000901C4800689C
:100EC00040F000701A4908600846006800F00070A1
:100ED000009000BF00BF00BF0020009014481038F1
:100EE000006840F0010012491039086008460068A7
:100EF00000F00100009000BF00BF4FF4C05001900F
:100F00000220029000200390032004900920059005
:100F100001A9084800F070F900220521142000F012
:100F200005FB142000F0EEFA06B010BD006400408E
:100F300040380240000002407047000010B50446EF
:100F40000D492068884216D12068C068C0F300109F
:100F500010B110202168C860084B094A00212046C2
:100F6000FFF7F3FC38B906480068B0F5FC6F02D112
:100F700001200449087010BD0064004038000020C2
:100F8000781100204000002070477047704770B50E
:100F9000044694F82000012822D1022084F8200081
:100FA0002068006820F001002168086000F02EFA37
:100FB00005460DE000F02AFA401B0A2808D9606AAD
:100FC00040F400306062052084F82000012070BDEC
:100FD0002068406800F001000028EBD16062F6E76D
:100FE000606A40F4002060620120F0E770477047BB
:100FF00070477047704770477047000010B50F4842
:101000000F490860002008600E48091D0860002094
:1010100008600D480A491039086000200860C120A6
:10102000091D0860002008600120091D08600020DB
:10103000086000F041FA002010BD0000FFC9FEF674
:101040002038024033797704FF11602270B50446DE
:1010500000F0DCF906462546681C10B1044800780B
:10106000054400BF00F0D2F9801BA842FAD370BD3E
:101070006C0000202DE9F04104460F46002600BF19
:101080002548007E012802D10220BDE8F081012020
:101090002149087600BF4CF25030FFF75DFA054653
:1010A000002D31D1401E3860206801280FD1207CEE
:1010B0006168FFF79BF94CF25030FFF74DFA054697
:1010C0001648006820F00400144908601AE0A66879
:1010D00012E0217C3046FFF71FF94CF25030FFF749
:1010E0003BFA05460D48006820F07A000B4908607D
:1010F0000DB13E6005E0761CD4E902100844B04210
:10110000E7D800BFFFF736F900BF00200249087694
:1011100000BF2846B9E7000044000020103C024010
:101120000348006840F00040014908600020704713
:10113000103C02402DE9F0410646884614461D4603
:1011400000BF1E48007E012802D10220BDE8F081C8
:1011500001201A49087600BF4CF25030FFF7FCF925
:1011600007461FBB26B9E1B24046FFF757F912E028
:10117000012E04D1A1B24046FFF77AF90BE0022E0E
:1011800004D121464046FFF787F904E022462B466A
:101190004046FFF755F94CF25030FFF7DDF90746AE
:1011A0000748006820F001000549086000BF0020E2
:1011B0000249087600BF3846C8E700004400002016
:1011C000103C024000200949096801F0004159B172
:1011D0000749064A0C3A116006491160034909683B
:1011E00001F0004101B1012070470000103C0240B5
:1011F00023016745AB89EFCDF8B502460B460025C4
:10120000002400200021D6E0012606FA01F51E6820
:1012100006EA0504AC4274D11E7906F00306012EDD
:1012200004D01E7906F00306022E13D190684F00F9
:101230000326BE40B0434F00DE68BE40304390609E
:10124000506801268E40B0431E79C6F300168E40CA
:10125000304350601E7906F00306032E09D0D06893
:101260004F000326BE40B0434F009E68BE4030434F
:10127000D0601E7906F00306022E13D1CF0802F1CA
:10128000200656F827004E07F70E0F26BE40B04343
:101290004F07FF0E1E69BE403043CF0802F1200603
:1012A00046F8270010684F000326BE40B0431E7961
:1012B00006F003064F00BE40304310605E6806F43F
:1012C0004036002E76D000BF002600963C4E366891
:1012D00046F480463A4F3E603E46366806F4804605
:1012E000009600BF00BF374E8F0856F827008E07C4
:1012F000370F0F26BE40B043334EB24202D1002614
:1013000024E057E0314EB24201D101261EE0304EBA
:10131000B24201D1022619E02E4EB24201D103267B
:1013200014E02D4EB24201D104260FE02B4EB24202
:1013300001D105260AE02A4EB24201D1062605E077
:10134000284EB24201D1072600E008268F073F0F42
:10135000BE4030431B4E8F0846F82700224E3068AF
:10136000A0435E6806F4801606B120431E4E30602E
:10137000361D3068A0435E6806F4001606B12043AF
:10138000194E361D3060184E361F3068A0435E6817
:1013900006F4003606B12043134E361F3060361F68
:1013A0003068A0435E6806F4803606B120430E4ED6
:1013B000083E3060491C1029FFF426AFF8BD00003C
:1013C0004438024008380140000002400004024056
:1013D00000080240000C02400010024000140240CD
:1013E00000180240001C0240083C014010B5426950
:1013F00021EA020302EA010443EA0443836110BDC7
:101400000AB1816101E00B04836170470148006803
:101410007047000064000020034800680349097811
:101420000844014908607047640000206C000020F7
:1014300010B50D48006840F400700B49086008467C
:10144000006840F4806008600846006840F48070DE
:101450000860032000F0A8F80F2000F007F800F063
:101460002DF8002010BD0000003C024070B504467D
:101470000E4800784FF47A71B1FBF0F00C4909681E
:10148000B1FBF0F5284600F0FFFC08B1012070BD6B
:10149000102C07D200222146501E00F047F80548C4
:1014A000046001E00120F2E70020F0E76C0000207A
:1014B00070000020680000207047000008B500BFE1
:1014C000002000900E48006840F480400C490860FD
:1014D0000846006800F48040009000BF00BF00BFD5
:1014E00000200090081F006840F08050091F08602D
:1014F0000846006800F08050009000BF00BF08BDA3
:10150000443802400146084600280DDB00BF00BFFA
:1015100000F01F0301229A4043099B0003F1E023DE
:10152000C3F8002100BF00BF00BF70472DE9F05F86
:1015300080460D461646002701F09CFE07463946B8
:101540002A46334601F00700C0F1070ABAF1040F3A
:1015500002D94FF0040A01E0C0F1070AD14600F1B8
:10156000040ABAF1070F02D24FF0000A01E0A0F11D
:10157000030AD4464FF0010A0AFA09FAAAF1010A4D
:101580000AEA020A0AFA0CFA4FF0010B0BFA0CFBFA
:10159000ABF1010B0BEA030B4AEA0B042146404670
:1015A00001F070FEBDE8F09F00BF00F00702064B9F
:1015B00019684FF6FF031940044B0B4343EA02211D
:1015C000014B196000BF70470CED00E00000FA0508
:1015D00008B501200349086203480068009000BF75
:1015E00008BD000000000E420070004070B50446C7
:1015F0000D460CB9012070BD5848006800F0070086
:10160000A84209D255490D700846006800F007004D
:10161000A84201D00120EEE7207800F00200022865
:101620001DD1207800F00400042805D14C48006842
:1016300040F4E0504A490860207800F0080008288B
:1016400005D14748006840F4604045490860444877
:10165000006820F0F000A168084341490860207844
:1016600000F00100A8B36068012807D13C480838A1
:101670000068C0F34040B8B90120BCE760680228A8
:1016800002D06068032807D1354808380068C0F3E5
:10169000406048B90120AEE7314808380068C0F31F
:1016A000400008B90120A6E72D48006820F003009B
:1016B000616808432A490860FFF7A8FE064609E06A
:1016C000FFF7A4FE801B41F28831884202D9032033
:1016D00091E707E02248006800F00C006168B0EB79
:1016E000810FEDD11D48006800F00700A84209D91C
:1016F0001A490D700846006800F00700A84201D0A2
:10170000012078E7207800F00400042807D114486D
:10171000006820F4E050E16808431149086020782F
:1017200000F00800082808D10D48006820F4604047
:10173000216940EAC1000A49086000F0FFF8084941
:101740000968C1F30311074A515CC84006490860A3
:1017500006480068FFF78AFE00204CE7003C024084
:10176000083802405A350008700000206800002048
:1017700010B5FFF74BFE04465748006840F00100E3
:101780005549086006E0FFF741FE001B022801D919
:10179000032010BD5048006800F002000028F2D07D
:1017A0004D48006840F080004B490860FFF72EFE6E
:1017B0000446002048490831086008E0FFF726FE8B
:1017C000001B41F28831884201D90320E1E74248F9
:1017D0000830006800F00C000028EFD1FFF716FE7B
:1017E00004463D48006820F450203B49086006E06C
:1017F000FFF70CFE001B642801D90320C9E7364817
:10180000006800F400300028F2D1FFF7FFFD044625
:101810003148006820F080702F49086006E0FFF72B
:10182000F5FD001B022801D90320B2E72A48006811
:1018300000F000700028F2D1FFF7E8FD04462648CA
:10184000006820F080602449086006E0FFF7DEFDB4
:10185000001B022801D903209BE71F48006800F005
:1018600000600028F2D11D481B49091D08601C4872
:1018700019498431086018480C30006820F4F85089
:1018800015490C3108600846006820F400500860D3
:101890000846006840F41F0008600846006840F4ED
:1018A000001008600C487430006820F001000A49FC
:1018B000743108600846006840F08070086009488C
:1018C0000949086009480068FFF7D0FD08B1012008
:1018D0005FE700205DE700000038024010300004A0
:1018E000003000200024F400700000206800002078
:1018F00001480068704700007000002000B5FFF745
:10190000F7FF04490968C1F38221034A515CC840CA
:1019100000BD0000083802406A35000800B5FFF736
:10192000E7FF04490968C1F34231034A515CC840EA
:1019300000BD0000083802406A3500082DE9F04774
:10194000002400250026A1462548006800F00C0070
:1019500020B1042805D008283AD105E0DFF88490AA
:1019600039E0DFF8849036E01D48001F006800F081
:101970003F041B48001F006800F4800078B11A483B
:101980001749091F0968C1F38811A0FB01700146BE
:10199000224600233846FEF715FC05460EE01148A6
:1019A0000F49091F0968C1F38811A0FB01700146A6
:1019B000224600233846FEF705FC05460848001F6E
:1019C0000068C0F30140401C4600B5FBF6F902E098
:1019D000DFF8109000BF00BF4846BDE8F087000068
:1019E000083802400024F40000127A00F8B50446DA
:1019F0000CB90120F8BD207800F00100002874D057
:101A0000F948006800F00C0004280DD0F648006882
:101A100000F00C00082813D1F348001F006800F400
:101A20008000B0F5800F0BD1EF4808380068C0F394
:101A30004040002859D06068002856D10120D9E7DD
:101A400000BF6068B0F5803F08D1E74808380068FB
:101A500040F48030E449083908601EE06068B0F561
:101A6000A02F0DD1E0480838006840F48020DE49FE
:101A7000083908600846006840F4803008600CE0CF
:101A8000D9480838006820F48030D7490839086000
:101A90000846006820F48020086000BF606890B1AC
:101AA000FFF7B4FC054606E0FFF7B0FC401B6428D6
:101AB00001D903209EE7CC4808380068C0F34040B5
:101AC0000028F1D011E0FFF7A1FC054606E0FFF782
:101AD0009DFC401B642801D903208BE7C2480838CD
:101AE0000068C0F340400028F1D1207800F00200E7
:101AF00002285FD1BC48006800F00C0058B1BA4819
:101B0000006800F00C0008281CD1B748001F0068CE
:101B100000F48000B0B9B44808380068C0F3400051
:101B200020B1E068012801D0012063E7AE48083801
:101B3000006820F0F800216940EAC100AA4908398C
:101B4000086037E0E06800B30120A8490860FFF7AB
:101B50005DFC054606E0FFF759FC401B022801D951
:101B6000032047E7A04808380068C0F34000002879
:101B7000F1D09D480838006820F0F800216940EA5B
:101B8000C10099490839086014E0002097490860AD
:101B9000FFF73CFC054606E0FFF738FC401B022837
:101BA00001D9032026E7904808380068C0F34000B8
:101BB0000028F1D1207800F0080008282CD16069B5
:101BC000A8B101208A490860FFF720FC054606E01D
:101BD000FFF71CFC401B022801D903200AE78248BA
:101BE0006C300068C0F340000028F1D014E0002001
:101BF0007F490860FFF70AFC054606E0FFF706FC90
:101C0000401B022801D90320F4E677486C300068B5
:101C1000C0F340000028F1D1207800F0040004282F
:101C200070D1002770483830006800F0805090B9BB
:101C300000BF002000906C483830006840F08050B1
:101C40006949383108600846006800F0805000900B
:101C500000BF00BF01276748006800F48070B0B97A
:101C60006448006840F4807062490860FFF7CEFB6A
:101C7000054606E0FFF7CAFB401B022801D90320F6
:101C8000B8E65C48006800F480700028F2D000BF1D
:101C9000A068012808D154486830006840F001006D
:101CA0005149683108601DE0A06805280DD14E48F3
:101CB0006830006840F004004B496831086008460D
:101CC000006840F0010008600CE047486830006898
:101CD00020F001004449683108600846006820F09F
:101CE0000400086000BFA068A8B1FFF78FFB05469D
:101CF00009E0FFF78BFB401B41F28831884202D993
:101D0000032077E626E0384868300068C0F34000DA
:101D10000028EED013E0FFF779FB054608E0FFF757
:101D200075FB401B41F28831884201D9032061E6EE
:101D30002D4868300068C0F340000028EFD1012F23
:101D400007D129483830006820F0805026493831C2
:101D5000086000BFA069002845D02348006800F053
:101D60000C0008285DD0A069022845D100201F4939
:101D70000866FFF74BFB054606E0FFF747FB401BF5
:101D8000022801D9032035E6174808380068C0F357
:101D900040600028F1D1D4E907010843616A40EAB4
:101DA00081110122A06AC2EB500041EA00412C20BF
:101DB000005D41EA00600C49091F086001200B49E1
:101DC0000866FFF723FB054606E0FFF71FFB401BF5
:101DD000022801D903200DE6034808380068C0F343
:101DE00040600028F1D049E0083802400000474236
:101DF000800E474200700040002021490866FFF72E
:101E000005FB054606E0FFF701FB401B022801D950
:101E10000320EFE51B480068C0F340600028F2D1C2
:101E20002CE0A069012800D1E4E51648001D0668F1
:101E3000A069012820D006F48001E06981421BD10D
:101E400006F03F01206A814216D147F6C07030404B
:101E5000616AB0EB811F0FD106F440310122A06A04
:101E6000C2EB5000B1EB004F06D106F070612C20A0
:101E7000005DB1EB006F01D00120BBE50020B9E5AA
:101E8000000047420038024070B504462546681EEF
:101E9000B0F1807F01D301200FE0681E4FF0E021F8
:101EA00048610F214FF0FF3001F0ECF900204FF0B6
:101EB000E021886107200861002070BD10B504464C
:101EC0000CB9012010BDA06900B100E000BF94F87A
:101ED000410028B9002084F84000204600F02AF88C
:101EE000242084F841002068C06820F40050216854
:101EF000C860204600F062FC2068006920F4904031
:101F0000216808612068406920F02A002168486142
:101F10002068C06840F400502168C86000206064F8
:101F2000202084F8410084F842000020606300BF54
:101F3000C8E7000010B586B00446142101A8FEF7DA
:101F40008BF91B492068884230D100BF00200090E7
:101F50001848006840F010001649086008460068FC
:101F600000F01000009000BF00BF00BF00200090F4
:101F700010481438006840F001000E491439086018
:101F80000846006800F00100009000BF00BF4FF459
:101F9000C060019002200290002003900320049072
:101FA0000720059001A90448FFF726F906B010BDE7
:101FB0000010014044380240000002402DE9F84F73
:101FC00004460E46174699464FF0000A94F8410021
:101FD000202850D106B117B90120BDE8F88F0020A4
:101FE0006064212084F84100FFF710FA8246A7843C
:101FF000E784A068B0F5805F04D1206910B900259E
:10200000B04602E035464FF000081EE0534600227D
:1020100080212046CDF8009000F0E6FC20B1202081
:1020200084F841000320D8E745B9B8F80000C0F3B0
:1020300008002168486008F1020803E02878216858
:1020400048606D1CE08C401EE084E08C0028DDD1EF
:102050005346002240212046CDF8009000F0C4FCF9
:1020600020B1202084F841000320B6E7202084F826
:1020700041000020B1E70220AFE700BFFEE700000B
:102080002DE9F0418AB004462078061136B1012EC0
:102090001AD0022E51D0032E7ED199E0207800F084
:1020A0000F05002D0FDD072D0DDC002005E0411C84
:1020B000615C704A1154411CC8B2A842F7DB294642
:1020C0006C4800F058FAD1E06078217801F00F01F7
:1020D00040EA0125072D17DDB5F5006F14DC6648D1
:1020E0000580002005E0811C615C624A1154411C9E
:1020F000C8B20628F7DB0620604908800120604945
:10210000087000F02DF917E0012D10DB062D0EDC14
:10211000002005E0811C615C564A1154411CC8B284
:10212000A842F7DB2946534800F025FA04E00020D6
:10213000514908805149088098E0207800F00F0745
:102140004F48007887423DD14B4800884B49098869
:10215000401A1FFA80F8B8F1070F01DB072000E0F2
:102160004046C5B200200DE0411C625C43490B882B
:102170000988491CDFF804C1ACF800103D49CA5475
:10218000411CC8B2A842EFDB3D480078401C3C49E6
:1021900008700846007800E067E00F2801DD0020A5
:1021A00008703648008834490988884209DB32487B
:1021B0000188304800F0DFF900202F4908802F49BE
:1021C000088004E000202C4908802C4908804DE05C
:1021D00044E02CA103C9CDE902014FF4FD60049055
:1021E000002007900690082008902848007800F00A
:1021F0000F0040F020008DF8080025480088254990
:102200000988401A87B2072F01DB072000E0384613
:10221000C5B200200BE01F490A880988491C1D4BE4
:1022200019801D498A5C411C02AB5A54C8B2A842AD
:10223000F1DB01AB02AA04A91848FEF750FA1348D3
:102240000078401C11490870084600780F2801DD0D
:10225000002008700A20FEF7F9FE00BF0D48008834
:102260000B4909888842B4DB00E000BF00BF0AB018
:10227000BDE8F0817800002000000020020000206E
:1022800004000020AAAAAAAAAAAAAAAA0A000020B0
:10229000060000200800002078080020941100208B
:1022A00030B589B005460C4626A103C9CDE9010128
:1022B0004FF4FD60039000200690059008200790E1
:1022C000072C12DCE0B28DF80400002004E02A5C48
:1022D000411C01AB5A54C8B2A042F8DB6B4601AABC
:1022E00003A91A48FEF7FBF929E0C4F3032040F0E4
:1022F00010008DF80400E0B28DF80500002005E024
:102300002A5C811C01AB5A54411CC8B20628F7DB79
:102310006B4601AA03A90D48FEF7E1F90C480480B9
:1023200006200C49088001200B490870062004E0B3
:10233000295C0A4A1154411C88B2A042F8DB09B05A
:1023400030BD0000AAAAAAAAAAAAAAAA941100208B
:1023500006000020080000200A0000207808002065
:1023600000B589B04FF4FD60039000200690059001
:102370000820079030208DF8040000208DF805001B
:102380008DF80600AA208DF807008DF808008DF85A
:1023900009008DF80A008DF80B006B4601AA03A90D
:1023A0000248FEF79CF909B000BD0000941100201E
:1023B00070B51048006810490840B0F1005F14D1B2
:1023C000FFF7D6F9FEF71AFE00204FF0E021086172
:1023D0004861886172B60748446825460146086826
:1023E00080F3088800BFA84703E00A2103A000F09B
:1023F00031FF70BD000001080000FE2F415050E584
:102400008CBAE59F9FE7A9BAE79D8025640000008C
:1024100000B58BB01F4820490860062048600021A5
:102420001D488160C1604FF4202101614FF480118B
:1024300041610021017641768176C176017741774D
:10244000FEF774FC08B1FDF764FF002006900790CA
:1024500001200890002001900290039004900590C4
:10246000012009900E200A9001A90B48FEF7DCF923
:1024700008B1FDF74EFF0848FEF789FD08B1FDF7EA
:1024800048FF02210448FEF715F908B1FDF741FFA6
:102490000BB000BD006400409411002000B587B06F
:1024A000142102A8FDF7D8FE00BF002001901F48AC
:1024B000006840F020001D4908600846006800F0F0
:1024C0002000019000BF00BF00BF0020019008461F
:1024D000006840F0800008600846006800F0800056
:1024E000019000BF00BF00BF0020019008460068B7
:1024F00040F0010008600846006800F0010001900B
:1025000000BF00BF01224FF4C0610948FEF778FF09
:102510004FF4C060029001200390002004900590C9
:1025200002A90348FEF768FE07B000BD303802403C
:102530000014024010B50B480B4908604FF4E1301D
:102540004860002108488160C16001610C2141613F
:1025500000218161C161FFF7B1FC08B1FDF7D9FE2F
:1025600010BD000000100140BC11002000BFFEE7BC
:1025700000BFFEE7704770B504460E4606B104B9C9
:1025800070BD2578312D26D008DC102D0FD0112DEF
:1025900012D0222D15D0272D38D117E0342D1FD081
:1025A000362D22D0372D25D03E2D2FD127E0314694
:1025B000204600F05FFA2EE03146204600F006FB90
:1025C00029E03146204600F03BFB24E0314620461E
:1025D00000F08AFB1FE03146204600F055FC1AE06F
:1025E0003146204600F0A6FC15E03146204600F0BA
:1025F0003FFD10E03146204600F0CEFD0BE0002309
:102600001A4619463E2000F019F804E01121284628
:1026100000F005F800BF00BF00BFB1E7704738B554
:1026200005460C467F208DF800008DF801508DF88E
:10263000024003216846FFF733FE38BD2DE9F04123
:102640000646884614461D4606F140000B490870B0
:102650000127002D0CDD5CB1002007E0235C39462A
:102660007A1CD7B2054A5354411CC8B2A842F5DBC4
:1026700039460248FFF714FEBDE8F08178100020CB
:1026800010B5FEF7C9FE10BD00B593B0302107A804
:10269000FDF7E2FD142102A8FDF7DEFD00BF0020DA
:1026A00001902448006840F08050224908600846A4
:1026B000006800F08050019000BF00BF00BF002004
:1026C00001901D48006840F480401B49086008469E
:1026D000006800F48040019000BF00BF0120079017
:1026E0000004089002200D9041050E9104210F91E5
:1026F000A8211091022111910421129107A8FFF73E
:1027000075F908B1FDF705FE0F2002900220039035
:10271000002004904FF4A05005904FF48050069094
:10272000052102A8FEF762FF08B1FDF7F2FD13B024
:1027300000BD0000403802400070004003480068BF
:1027400040F47000014908607047000088ED00E027
:1027500000BF00BF02680C3252E8002F22F49071D3
:1027600002680C3242E80013002BF3D100BF00BF17
:1027700000BF0268143252E8002F22F00101026803
:10278000143242E80013002BF3D100BF016B012982
:102790000ED100BF00BF02680C3252E8002F22F0B9
:1027A000100102680C3242E80013002BF3D100BF85
:1027B000202180F842100021016370472DE9F84F75
:1027C00004462068006920F44050E168084321680D
:1027D00008612169A068084361690843E169084309
:1027E00000902068C06849F20C6188430099084352
:1027F0002168C8602068406920F44070A1690843DE
:102800002168486176492068884203D0754920686C
:10281000884203D1FFF782F8814602E0FFF76EF8A5
:102820008146E069B0F5004F6CD102206168A0FBE1
:10283000015003461920A9FB007001462A4638467C
:10284000FDF7C0FC6421B0FBF1F04FEA001A022052
:102850006168A0FB01510B461920A9FB00712A46B3
:102860003846FDF7AFFC834602206168A0FB0150AB
:1028700003461920A9FB00712A463846FDF7A2FC41
:102880006421B0FBF1F000EBC00101EB0010ABEBF9
:102890008000322101EBC0006421B0FBF1F000F0B8
:1028A000F8000AEB400A02206168A0FB01500346D1
:1028B0001920A9FB007001462A463846FDF782FC24
:1028C000834602206168A0FB015003461920A9FB42
:1028D00000712A463846FDF775FC6421B0FBF1F023
:1028E00000EBC00101EB0010ABEB8000322101EBEB
:1028F000C0006421B0FBF1F000F0070050442168F3
:1029000088606AE004206168A0FB0150034619203A
:10291000A9FB007001462A463846FDF753FC824663
:1029200004206168A0FB015003461920A9FB007038
:1029300001462A463846FDF745FC6421B0FBF1F01C
:1029400000EBC00101EB0010AAEB8000322101EB8B
:1029500000106421B0FBF1F000F0F00A042061687F
:10296000A0FB017003461920A9FB00513A462846F6
:10297000FDF728FC6421B0FBF1F00AEB001A0420FB
:102980006168A0FB01510B461920A9FB00712A4682
:102990003846FDF717FC834604206168A0FB015010
:1029A00003461920A9FB007001462A463846FDF768
:1029B00009FC6421B0FBF1F000EBC00101EB001059
:1029C000ABEB8000322101EB00106421B0FBF1F091
:1029D00000F00F00504421688860BDE8F88F0000C7
:1029E00000100140001401402DE9F84304460D4653
:1029F00017469846089E31E0701C70B3FEF706FD3E
:102A0000A0EB0800B04200D816B90320BDE8F88357
:102A10002068C06800F00400F8B1802D1ED0402D61
:102A20001CD020680068C0F3C000B0B100BF002017
:102A3000009020680068009020684068009000BF07
:102A400000BF2046FFF784FE0820606400BF00201E
:102A500084F8400000BF0120D8E7FFE72068006845
:102A60002840A84201D1012000E00020B842C3D094
:102A70000020CBE77FB505460E46022E04DA13216F
:102A80001020FFF7CCFD7FBD687800F07F04012C9B
:102A90002ED14348007801280AD142A103C9CDE9CB
:102AA0000201052302AA00211020FFF7C7FD1EE046
:102AB0003B48007802280AD13AA103C9CDE90001B8
:102AC00005236A4600211020FFF7B8FDDBE735A19A
:102AD00003C9CDE90201052302AA00211020FFF756
:102AE000ADFD1E20FEF7B2FAFFF762FC00BFCAE799
:102AF000022C26D12A48007802280AD12BA103C92A
:102B0000CDE90201052302AA00211020FFF796FD5E
:102B100016E0022022490870002026490870264944
:102B20000870264908702649086020A103C9CDE92C
:102B30000201052302AA00211020FFF77FFD00BF3C
:102B4000A1E7032C26D116480078022804D12221BF
:102B50001020FFF764FD96E71148007803280AD19A
:102B600018A103C9CDE90201052302AA0021102002
:102B7000FFF764FD0DE003200949087011A103C9A6
:102B8000CDE90201052302AA00211020FFF756FD1E
:102B900000BF78E712211020FFF741FD00BF72E768
:102BA0000C00002001003227100000000200322734
:102BB0001000000024000020250000202C00002030
:102BC000300000200300322710000000F8B5044652
:102BD0000D46022D04DA13211120FFF720FDF8BD68
:102BE000607800F07F06012E02D0032E1CD10DE08C
:102BF00011A00068009002236A4600211120FFF70F
:102C00001DFD1E20FEF722FA00F050FB0BA000680D
:102C1000009001236A4600211120FFF70FFD1E20BE
:102C2000FEF714FA00F042FB12211120FFF7F7FC27
:102C300000BF00BF00BFD2E7013200000300000068
:102C400070B58AB004460E46032E05DA1321222001
:102C5000FFF7E5FC0AB070BDA078617840EA012575
:102C60004FF2901085421CD1F1208DF81400902075
:102C70008DF81500142215A16846FDF7D4FA00203E
:102C800006E01DF80020811C05AB5A54411CC8B257
:102C90001128F6DB132305AA00212220FFF7CEFC22
:102CA00012E04FF2891085420AD10DA103C9CDE986
:102CB0000801062308AA00212220FFF7BFFC03E039
:102CC00031212220FFF7ABFC00BFC3E756494E314C
:102CD000323334353637383930414243440000000E
:102CE000F18956312E3000002DE9FC4104460D4695
:102CF000022D05DA13212720FFF791FCBDE8FC81A6
:102D000058480078022804D022212720FFF787FCAA
:102D1000F4E76678012E3FD15348006890B1FEF782
:102D200075FB51490968401A42F21071884204D279
:102D300037212720FFF773FCE0E700204A490860AD
:102D40004A490870FEF762FB80464FF0E020876931
:102D500088EAC7004649484046490860464903C9D1
:102D6000CDE9000143480068000E8DF8010041489C
:102D70000068000C8DF802003E480088000A8DF8BB
:102D800003003C4800788DF8040005236A460021C2
:102D90002720FFF753FCB1E7022E5CD132480068D0
:102DA00090B1FEF733FB30490968401A42F21071C6
:102DB000884204D237212720FFF731FC9EE700200C
:102DC0002949086029490870062D04DA13212720B3
:102DD000FFF725FC92E7A0780006E17840EA014081
:102DE000217940EA0120617940EA01082148006820
:102DF000C04380F05A3021494718B84511D101200D
:102E00001F490870002019490870174908601DA063
:102E100000680190012301AA00212720FFF70EFC82
:102E20006CE712480078401C10490870084600788A
:102E300003280BDBFEF7EAFA0B49086000200B4978
:102E4000087036212720FFF7EAFB57E735212720B6
:102E5000FFF7E5FB52E712212720FFF7E0FB00BF59
:102E60004CE700000C000020300000202C00002067
:102E7000F7E1C3A5280000205435000891BC18369E
:102E80002400002002000000F8B504460D46042D81
:102E900004DA13213120FFF7C2FBF8BD6778E07830
:102EA000A17840EA0126012F04D012213120FFF73A
:102EB000B6FBF2E7B6F57F4F2DD11A48007802280D
:102EC00004D022213120FFF7AAFBE6E7164800785C
:102ED000012804D033213120FFF7A1FBDDE713489F
:102EE000007848B112A00068009003236A460021D0
:102EF0003120FFF7A3FBD0E778213120FFF78FFBCC
:102F00001E20FEF7A3F8FDF759FB00B9C5E7012025
:102F100006490870C1E712213120FFF780FB00BF8E
:102F2000BBE700000C00002024000020250000204A
:102F300001FF00002DE9FC5F044688463F48007809
:102F4000022805D022213420FFF769FBBDE8FC9F51
:102F50003B480078012804D033213420FFF75FFB81
:102F6000F4E73848007820B922213420FFF757FBD6
:102F7000ECE7B8F10B0F04DA13213420FFF74FFB15
:102F8000E4E794F80190A6784FEA161A06F00F0BC2
:102F9000B9F1000F04D022213420FFF740FBD5E720
:102FA000BAF1040F02D1BBF1040F04D01321342075
:102FB000FFF735FBCAE7E0780006217940EA0140D7
:102FC000617940EA0120A17940EA0105E079000633
:102FD000217A40EA0140617A40EA0120A17A40EA80
:102FE00001071948854203D3E819B0F1016F04D3F2
:102FF00031213420FFF713FBA8E71448056014487B
:103000000760002013490860012013490870801EE2
:103010001249086001201249087012498860602036
:10302000886011A103C9CDE9000105236A4600218A
:103030003420FFF703FB00BF88E700000C000020EE
:1030400024000020250000200000010810000020BE
:1030500014000020180000201C0000202000002088
:103060000D00002000300240440000040000000079
:103070002DE9F84306460F463F480078022805D060
:1030800022213620FFF7CBFABDE8F8833B480078D1
:1030900020B924213620FFF7C2FAF5E7022F04DA1F
:1030A00013213620FFF7BBFAEEE77478B81E85B21D
:1030B00006F1020832480078844204D024213620E8
:1030C000FFF7ADFAE0E72F48006828442E49096869
:1030D000884204D931213620FFF7A1FAD4E72B48E2
:1030E00000682849096800EB01092A46414648461C
:1030F000FDF782FA20B922213620FFF790FAC3E7C4
:1031000000201EE018F80010214A12685140204AA1
:103110001160002111E01E4A127802F001022AB16A
:103120001B4A12681B4B83EA520202E0184A1268DB
:103130005208174B1A604A1CD1B20829EBDB411C1C
:1031400088B2A842DEDB0F48006828440D490860B9
:10315000FF2C01D1002000E0601C0949087002200A
:1031600006490870009401236A4600213620FFF7C3
:1031700065FA00BF88E700000C0000200D00002069
:103180001C00002018000020140000201000002067
:10319000200000202083B8ED2DE9F04104460D46C3
:1031A00024480078022805D022213720FFF737FA7B
:1031B000BDE8F0812048007820B924213720FFF7AE
:1031C0002EFAF5E71D4800681D490968884204D0B9
:1031D00022213720FFF723FAEAE7052D15DB607877
:1031E0000006A17840EA0140E17840EA0120217917
:1031F00040EA010613480068C743BE4204D03121AB
:103200003720FFF70CFAD3E700BF00200A49087007
:103210000D4908600A4908600849086001200B4907
:10322000087000231A4619463720FFF707FA00BF37
:10323000BEE700000C0000200D0000201800002058
:103240001400002020000020100000201C0000209E
:1032500000BFFEE70FB4054B10B503A9044A02985E
:1032600000F048F810BC5DF814FB00004934000879
:103270007400002002480068C0F30220704700007C
:103280000CED00E010B5002804DB0A07130E054A18
:10329000135406E00A07140E034A00F00F031B1F25
:1032A000D45410BD00E400E018ED00E0BFF34F8FF0
:1032B0000648006800F4E06005490843001D034922
:1032C0000860BFF34F8F00BF00BFFDE70CED00E0CB
:1032D0000000FA0502E008C8121F08C1002AFAD14E
:1032E00070477047002001E001C1121F002AFBD186
:1032F000704700002DE9FF4F89B09B46044600252A
:1033000006E025280BD05A460B999047641C6D1C8B
:1033100020780028F5D10DB02846BDE8F08F0027B1
:10332000B8460122474900E0074314F8013F203B1B
:1033300002FA03F00842F7D120782E2819D114F8A8
:10334000010F47F004072A280ED06FF02F022078D3
:10335000A0F1300109290CD808EB880102EB4101EA
:1033600000EB0108641CF2E70A98641C50F8048B17
:103370000A9020780028CED0642808D0692806D08A
:1033800075281ED05A460B9990476D1C58E00A9933
:103390004FF00A0901C90A91002802DA40422D21A2
:1033A00002E0390504D52B218DF82010012103E01E
:1033B000F90704D02021F7E78A4608AE0DE0002186
:1033C000FAE70A994FF00A0901C90A91F7E7494655
:1033D000FCF74DFF303106F8011D0028F7D1ADEBA9
:1033E000060000F12009780701D44FF00108C84514
:1033F00002DDA8EB090000E000208046002706E07F
:1034000008A85A46C05D0B9990476D1C7F1C574514
:10341000F6DB04E030205A460B9990476D1CB8F15A
:103420000001A8F10108F5DC05E016F8010B5A4689
:103430000B9990476D1CB9F10001A9F10109F4DC69
:10344000641C65E70928010013B50C464FF6FF73AD
:10345000012269460248FEF7B1FD00981CBD00003C
:10346000BC1100201CB500BF00200190314800684D
:1034700040F080502F4908600846006800F08050F6
:10348000019000BF00BFFEF7A3F82B4805682B484A
:10349000854202D0FEF78CFF02E00020264908603A
:1034A000FDF7C6FFFFF7F0F8FEF7F8FFFEF7B0FFF5
:1034B000FFF740F8022022490870FDF7A7FF0446F5
:1034C00036E020480078012815D172B6002005E0CA
:1034D0001D49095C0DF80010411CC8B20828F7DB33
:1034E00000201849087062B6FDF790FF0446684650
:1034F000FEF7C6FD00BFFDF789FF001B47F2305104
:10350000884204D3FEF754FFFDF780FF0446FDF721
:103510007DFF0E490968401AB0F5FA7F08D3FDF720
:1035200075FF0A4908604FF400710948FDF75EFF16
:10353000C7E700004038024050280040EFBEADDE33
:103540000C00002040000020380000203400002043
:103550000014024001000000000000000000000014
:103560000000010203040607080900000000010230
:1035700003040000943500080000002078000000DB
:10358000D43200080C3600087800002090150000A6
:10359000E43200080000000001000000000001000B
:1035A000010000000000000000000000000000001A
:1035B00001000000FFFFFFFF00000000000000000E
:1035C00000000000000000000000000000000000FB
:1035D00000000000000000000000000000000000EB
:1035E00000000000000000000100000000000000DA
:1035F00000000000000000000000000010000000BB
:0C360000010000000024F40000000000A5
:040000050800018965
:00000001FF
