:020000040801F1
:10000000509D0120A101010859470108833D0108C5
:1000100055470108DF050108295B010800000000C1
:100020000000000000000000000000000F4B01086D
:1000300049090108000000001D4A0108D54B0108CC
:10004000BB010108BB010108BB010108BB0101089C
:10005000BB010108BB010108BB010108BB0101088C
:10006000BB010108BB010108BB010108BB0101087C
:10007000BB010108BB010108BB010108BB0101086C
:10008000BB010108BB010108BB010108BB0101085C
:10009000E5050108BB010108BB010108BB0101081E
:1000A000BB010108BB010108BB010108BB0101083C
:1000B000BB010108BB010108BB010108BB0101082C
:1000C000BB010108BB010108BB010108BB0101081C
:1000D000BB010108BB010108BB010108BB0101080C
:1000E000BB010108BB010108BB010108BB010108FC
:1000F000BB010108BB010108BB010108BB010108EC
:10010000BB010108BB010108BB010108BB010108DB
:10011000BB010108BB010108BB010108BB010108CB
:10012000BB010108BB010108BB010108BB010108BB
:10013000BB010108590A0108BB010108BB01010804
:10014000BB010108BB010108BB010108BB0101089B
:10015000BB010108BB010108BB010108BB0101088B
:10016000BB010108BB010108BB010108BB0101087B
:10017000BB010108BB010108BB0101080000000030
:10018000BB010108BB010108DFF810D000F0EAF95B
:1001900000480047AD3C0408AFF30080509D0120AB
:1001A0000648804706480047FEE7FEE7FEE7FEE711
:1001B000FEE7FEE7FEE7FEE7FEE7FEE7914C0108FB
:1001C000890101082DE9F05F0546002092469B4613
:1001D00088460646814640241BE02846414647465D
:1001E000224600F020F853465A46C01A914110D3D7
:1001F00011461846224600F049F92D1A67EB01080E
:100200004F4622460120002100F040F917EB00097B
:100210004E41201EA4F10104DFDC484631462A4647
:100220004346BDE8F09F202A04DB203A21FA02F081
:100230000021704721FA02F3D040C2F12002914020
:1002400008431946704700000649074A08685043AA
:1002500043F23902104408604008704701490860C1
:100260007047000094C101206D4EC64110B5431A7D
:10027000934209D28318881803E010F8011D03F88F
:10028000011D521EF9D210BD40EA01039B0703D0A5
:1002900009E008C9121F08C0042AFAD203E011F8C5
:1002A000013B00F8013B521EF9D210BDD2B201E071
:1002B00000F8012B491EFBD270470022F6E710B56B
:1002C00013460A4604461946FFF7F0FF204610BDC4
:1002D000421E12F8013F002BFBD111F8013B02F83E
:1002E000013B002BF9D17047421C10F8011B00297B
:1002F000FBD1801A704710B5002200E0521C835CCD
:100300008C5CA34201D1002BF8D1D8B2E1B2401AE3
:1003100010BD30B504460020034600E05B1C93424C
:1003200003D2E05CCD5C401BF8D030BD034611F831
:10033000012B00F8012B002AF9D11846704730B57F
:1003400005460020034600E05B1C934205D2EC5CAE
:10035000C85C201A01D1002CF6D130BD2DE9FE4F2A
:1003600081EA030404F0004421F0004100944FF0BE
:10037000000B23F0004350EA01045ED052EA03046C
:100380005BD0C3F30A54C1F30A552C44A4F2F334EE
:100390000194A0FB0254C1F3130141F48011C3F393
:1003A000130343F4801301FB024400FB034E840A51
:1003B000970A44EA815447EA8357A4FB07680295E9
:1003C0008D0A05FB07854FEA932C04FB0C54270587
:1003D000029D4FEA065847EA1637B5EB08056EEB63
:1003E000070C870E920E47EA811742EA8312A7FB99
:1003F0000201B6EB0B0164EB00042B0D43EA0C3356
:100400005E1844EB1C50DA465146E7FB0201C5F387
:1004100013044FEA0B3343EA14534FEA0432019CAE
:1004200043EA0603A4F10C040294009CCDE900B455
:1004300000F04AF803B0BDE8F08F00200146F9E76C
:100440000EB540F2334102910021CDE900110A4678
:100450000B4600F039F803B000BDC1F30A5210B5E5
:10046000C1F3130140F2FF3341F480119A4201DAE3
:10047000002010BD40F233439A42A2F2334203DC23
:100480005242FFF7D0FE10BD904010BD202A04DB81
:10049000203A00FA02F1002070479140C2F1200397
:1004A00020FA03F319439040704710B5141E73F1FE
:1004B000000408DA401C41F1000192185B411A4324
:1004C00001D120F0010010BD2DE9F04D92469B4670
:1004D00011B1B1FA81F202E0B0FA80F22032904616
:1004E000FFF7D4FF04460F4640EA0A0041EA0B0139
:1004F00053465A46084313D0114653EA010019D017
:10050000C8F140025046FFF78EFE05460E465046A3
:1005100059464246FFF7BAFF084305D0012004E0E0
:1005200020463946BDE8F08D0020054346EAE076D6
:100530002C4337430A986305E40AA0EB0800002225
:10054000FD0A44EA47540A3002D500200146E9E793
:10055000010510196941DDE9084500196941BDE847
:10056000F04DA2E7064C074D06E0E06840F00103BD
:1005700094E8070098471034AC42F6D3FFF708FE22
:1005800080A90608C0A9060870B58C1810F8015B90
:1005900015F0070301D110F8013B2A1106D110F81C
:1005A000012B03E010F8016B01F8016B5B1EF9D120
:1005B0002B0705D40023521E0DD401F8013BFAE7A6
:1005C00010F8013BCB1A921C03E013F8015B01F811
:1005D000015B521EF9D5A142D8D3002070BD00BFE7
:1005E000FEE7000010B5024801F00DFD10BD00004F
:1005F00034D401202DE9F84F3348006808B9BDE82C
:10060000F88F4FF420722821362035F0FFFD054683
:1006100005B9F4E76E683446022004F8010BFD20AA
:1006200004F8010B0421204637F0BCFEA41C202155
:10063000204637F0BBFE241D112224A12046FFF7DF
:1006400015FE11342648007804F8010B2448407840
:1006500004F8010B05270BE0FA00DFF88880DFF8CB
:10066000889040464946FFF7DEFD04F8010B7F1EE7
:10067000002FF1DA05270BE0FA00DFF870A0DFF8B1
:1006800070B050465946FFF7CEFD04F8010B7F1EAF
:10069000002FF1DA002004F8010BA01B68816889A3
:1006A00028814FF0FF30009043F258436A462946B4
:1006B0000548006842F0C6FE284636F047FA0DA00D
:1006C00005F034FA00BF9AE7A800002056494E31E1
:1006D0003233343536373839304142434400000034
:1006E0009D000020EFCDAB907856341221436587F2
:1006F00009BADCFE5B444F49505D205544502061EF
:100700006E6E6F756E63652073656E740D0A000002
:1007100010B53CF065FA1E4908600846006818B933
:100720001CA005F003FA10BD43F258421F491848B7
:1007300000683AF053FA044624B121461CA005F0A3
:10074000F5F9F0E7FF21124800683CF0CFF81049B6
:1007500008601E490E4800683AF07FF943F258419C
:100760001BA005F0E3F942F033FE2149086008467A
:10077000006858B143F258420C491D48006842F0E5
:10078000AFFB43F258411BA005F0D0F900BFCAE708
:10079000A00000205B444F49505D207463705F6E81
:1007A0006577204641494C0D0A00000054A3060815
:1007B0005B444F49505D207463705F62696E6420D2
:1007C0004641494C3A2025640D0A000069B90108E8
:1007D0005B444F49505D20544350207365727665E9
:1007E00072206F6E20706F72742025640D0A0000F5
:1007F000A80000205B444F49505D20554450206FB5
:100800006E20706F72742025640D0A0010B51248B6
:10081000007868B100201049087002F0F3FC04462B
:100820000E48224603680E4801780EA005F07EF9B6
:100830000B48007870B102F0E5FC18490968401ACD
:1008400041F28831884205D3FFF7D4FE02F0DAFC8A
:100850001249086010BD0000C0000020A800002060
:100860001CC101205B444F49505D20444F49505FFB
:1008700050726F6365737320737461727465642C56
:10088000206C696E6B3D2564207469636B3D256C3B
:1008900075207063623D25700D0A0000BC000020C9
:1008A0007CB505460C460F4800788DF800000D48D1
:1008B00040788DF801000C48008800128DF8020085
:1008C000094800788DF803007F208DF804008DF82A
:1008D00005508DF806400722694648F201000BF0EA
:1008E000F1FA7CBD9D000020AC00002070B50546EB
:1008F0000C4640F6FC70844200DD70BD0F48007865
:100900000F4908700D48407848700E480088001262
:1009100088700C480078C870002C06DD2DB1224686
:1009200029460748001DFFF7A1FC221D044948F293
:1009300001000BF0C7FA00BFDFE700009D000020B8
:10094000CA320020AC000020704710B501460022DA
:1009500027E002EB82040B6903EBC4000023036071
:1009600043608360C360036243624FF000430360EF
:100970004B6943F480434360436823F00043436082
:1009800001F1480343F82200032A07D202EB820454
:100990000B6903EBC4032833C36001E00B69C36038
:1009A000521C042AD5D30024CC650C668C66CC6618
:1009B0008C650B6803F580530C69DC6010BD10B5C5
:1009C0000146002222E002EB8204CB6803EBC40064
:1009D0000023036043608360C36001F1180343F8A0
:1009E0002200036843F480130360032A07D202EB5A
:1009F0008204CB6803EBC4032833C36001E0CB68F7
:100A0000C360036843F440030360521C042ADAD332
:100A100000248C620B6803F58053CC681C6110BD08
:100A200038B5044600200090206800F580508069A9
:100A300040F48011206800F580508161206800F545
:100A4000805080690090012001F090FD009920689D
:100A500000F58050816138BD10B504480068401C25
:100A600002490860024801F00FFE10BD20C10120BC
:100A7000404D012030B503461479557944EA0520EC
:100A8000084C0C442064D4782406957844EA054444
:100A9000557844EA0524157844EA0500014C0C44D5
:100AA000606430BD0080024010B5A4B0044601204F
:100AB0008DF83C008DF83D0000200D908DF84B0026
:100AC00001208DF84A0000208DF8480001208DF8A3
:100AD0003A008DF8300000208DF84C008DF83B0076
:100AE00014908DF854001D908DF878001F908DF8AB
:100AF00082008DF880004FF480401090C01011905B
:100B000000208DF881000BA9204600F08FF901200C
:100B10008DF80C008DF80D008DF81D008DF80E007D
:100B2000002005908DF81C008DF81E000890012013
:100B30008DF824008DF804000004029080010690D6
:100B40004012049001208DF8250000200A900090AA
:100B50006946204600F00AF924B010BD0020704715
:100B600010B502F04FFB10BD10B5024802F052F86C
:100B7000002010BD404D012070B504460D461646BC
:100B800033462A462146044801F0BCFF10B14FF01D
:100B9000FF3070BD0020FCE7404D012070B50446D9
:100BA0000D46164633462A462146044802F084F98B
:100BB00010B14FF0FF3070BD0020FCE7404D012028
:100BC0002DE9F04F81460C46174609F118021369CA
:100BD000D2F810C04FF0000A52F82310A568D3468F
:100BE000086800F00040B0F1004F04D002F114009A
:100BF00050F8230010B10220BDE8F08F0AF1010A7D
:100C00002868886048686FF30C00D5F804E040EA73
:100C10000E004860207800F0010038B1086820F428
:100C20004000D4F814E040EA0E000860207800F09C
:100C3000200038B1086820F04060D4F810E040EAA5
:100C40000E000860207800F0040018B1086840F039
:100C500080000860086840F08050086053E0086831
:100C600020F00050086027B1086840F0804008601C
:100C700003E0086820F08040086000BF5B1C042B84
:100C800000D31B1F00BF52F82310086800F000407B
:100C9000B0F1004F04D002F1140050F82300C8B1A5
:100CA000634652F823104FF000080FE0BFF35F8F48
:100CB000086820F00040086000BF5B1C042B00D3D4
:100CC0001B1F00BF52F8231008F10108D045EDD3D7
:100CD000022091E7086820F0805008600AF1010ABC
:100CE000AD682868886048686FF30C00D5F804E0A8
:100CF00040EA0E0048600BF1010BBFF35F8F0868FC
:100D000040F000400860A8680028A8D127B1086812
:100D100040F08040086003E0086820F080400860F0
:100D2000086840F00050086052F82C10BFF35F8F45
:100D3000086840F00040086002F1140E506A4EF856
:100D40002300136100BFEFF31080064600BF0120AF
:100D500080F3108800BF0BF1010E906A704490621E
:100D600000BF86F3108800BF002045E770B5054638
:100D70000C46286800F5805086692B480640207B89
:100D800008B9012000E000208006617B40EA416054
:100D9000617F09B9012100E0002140EA0150A17BF7
:100DA00040EA415061690843217F40EAC110A17FB8
:100DB00040EA8110216A084394F8241040EA810037
:100DC0000643286800F580508661286800F5805049
:100DD0008669012001F0CAFB286800F58050866111
:100DE0002179A06840EA4160A1690843216908436C
:100DF00094F8251040EAC110A16A40EA81002168F8
:100E0000084340F40001286800F58050016028681C
:100E100000F580500668012001F0A8FB286800F565
:100E20008050066070BD0000233FDEF870B50546B7
:100E30000C46286806683B480640A07B4006217C9B
:100E400009B9012100E0002140EAC150617C09B9E3
:100E5000012100E0002140EA8150A1680843E17FC0
:100E600040EA014061690843A17F09B9012100E01E
:100E7000002140EA4130217F40EA0130A169084366
:100E8000217940EA812094F8201009B9012100E07D
:100E9000002140EA4120E17B40EAC110616A084339
:100EA00094F8281040EA0110064328680660286874
:100EB0000668012001F05AFB2868066028688669E8
:100EC0004FF641700640A06C000494F84C1009B92C
:100ED000012100E0002140EAC110216D084394F88F
:100EE0005510012900D100E0002140EAC10094F82A
:100EF0005610012900D100E0002140EA810094F859
:100F00005410012900D100E0002140EA41000643CD
:100F10002868866128688669012001F027FB286817
:100F2000866170BD0F8120FD2DE9F8430446002045
:100F300000904FF00109A56E04F1480050F82560BB
:100F4000E76E2CE0306A58B9684601F011FE00984F
:100F500010B94FF0000903E0009830620098B060CB
:100F6000B9F1000F1BD0A06D30B9606940F00040AE
:100F700040F48040706003E0606940F4804070603D
:100F8000306840F00040306000BF6D1C042D00D37D
:100F90002D1F00BF04F1480050F825607F1E17B1D7
:100FA000B9F1000FCED1E06EB8420FD0E81C00F0CE
:100FB0000308BFF35F8F08EB8801206900EBC101D4
:100FC000206800F580508160A566E766BDE8F8837B
:100FD00072B600BFFEE7000010B5044602F012F939
:100FE00006490968401A642806D302F00BF9034940
:100FF0000860204614F01AF910BD000040C101201D
:1010000070B50446B3F5804F13D1D1E9000540EA2D
:1010100005108D6840EA05208D6928438D8940EAD6
:10102000054054F82250064E3540284344F822002B
:1010300003E06FF0704044F82200002070BD000013
:101040000000F0CF70B50246086852F8200020F08A
:1010500001000E6842F826008868082801D1402364
:1010600000E00023486818438E683043CE68304360
:101070000E6930434E693043CE6930430E6A3043C7
:101080004E6A30438E6A3043CE6A30430E6B40EA7C
:10109000060488690443C86B0443074D45F4806522
:1010A00045F4E025086852F82000A84320430E6864
:1010B00042F82600002070BD7FFB080010B50346F3
:1010C000D1E9000440EA04108C6840EA04208C89CD
:1010D00040EA0444088A401E44EA0054087D801E09
:1010E00044EA00608C692043541C43F8240000202B
:1010F00010BD00002DE9F04F8DB000BF20F0D2FDF3
:10110000044620F02BFE0546FD481FF0FDFE0022A0
:101110000146009028462EF030F80022114628465D
:101120002EF0D9F8284629F0D3FD0C902E224FF44A
:1011300048710C982DF0CFFE00231A4602210C981E
:1011400029F092F8EF481FF0DFFE002201460090E0
:101150000C982EF012F8002211460C982EF036F85A
:10116000002211460C982EF003F9002211460C982B
:101170002EF0B1F810210C9829F0E4FC0C9826F020
:1011800083FD0746E0A1384627F086FDE3481FF0BF
:10119000BBFE00220146009038462EF002F90022E4
:1011A000DF4938462EF00EF9002310220721384679
:1011B00029F05AF80C9826F067FD8046D9A14046E0
:1011C00027F06AFDD8481FF09FFE002201460090DC
:1011D00040462EF0E6F800200823142239460090FD
:1011E000404629F053F80C9826F04EFD0B90CFA105
:1011F0000B9827F051FDD1481FF086FE00220146D2
:1012000000900B982EF0CDF80022CD490B982EF0CF
:10121000D9F8002008231422414600900B9829F0A9
:1012200035F80C9827F03EFE81460A2211464846C2
:101230002DF051FE09202EF0C9F9014600904846D4
:1012400027F07BFF484627F051FF00236FF08B0209
:101250000821484629F008F80C9826F015FD82462A
:10126000B8A1504627F018FDB7481FF04DFE0022E8
:101270000146009050462EF094F80022B3495046A3
:101280002EF0A0F800200423142249460090504676
:1012900028F0FCFF0C9827F005FE0A900A22114660
:1012A0000A982DF018FE09202EF090F901460090C2
:1012B0000A9827F042FF0A9827F018FF0020102311
:1012C0001422514600900A9828F0E0FF0C9826F06E
:1012D000DBFC09909EA1099827F0DEFC9A481FF0DC
:1012E00013FE00220146009009982EF05AF80022C1
:1012F000964909982EF066F80020042314220090E5
:10130000DDE9090128F0C2FF284629F0E1FC089038
:101310004FF4BB724FF4487108982DF0DCFD2E237A
:1013200000220221089828F09FFF75481FF0ECFD6D
:1013300000220146009008982DF01FFF0022114660
:1013400008982DF043FF0022114608982EF010F85F
:1013500000220C2108982DF0BEFF1021089829F0DA
:10136000F1FB089829F0B4FC07904FF4AE724FF4EB
:10137000917107982DF0AFFD00231A4607210798B9
:1013800028F072FF5F481FF0BFFD00220146009069
:1013900007982DF0F2FE0022114607982DF016FF57
:1013A00000220C2107982DF0E3FF00220C21079862
:1013B0002DF091FF1021079829F0C4FB079826F023
:1013C00063FC069063A1069827F066FC5B481FF05B
:1013D0009BFD00220146009006982DF0E2FF0022BE
:1013E000574906982DF0EEFF0423002202210698AB
:1013F00028F03AFF07981CF0D3FF57490860B42241
:101400001146554800682DF066FD1E23002202217A
:101410005148006828F028FF642200214E480068E7
:101420001DF024FC4E214C4800681DF093FC2D2239
:101430008721494800681DF044FB87214648006821
:101440001DF037FC45481FF05FFD0022014600906B
:10145000414800682DF05BFE00220E213E480068E6
:101460002DF071FE3E481FF04FFD4FF40032014653
:101470000090394800682DF04AFE4FF400320E21EA
:10148000354800682DF05FFE4FF4003201213248EC
:1014900000682DF04CFE02212F48006829F052FB15
:1014A000079826F0F1FB2F4908602FA12D4800680E
:1014B00027F0F2FB2D481FF027FD00220146009087
:1014C000284800682DF06DFF002229492548006852
:1014D0002DF078FF2348046800231A46092120468E
:1014E00028F0C2FE00BF6FF059011E4800682DF0C1
:1014F000CFFF079826F0C8FB1E4908603CE00000BB
:101500002A170F003B291E0046435843405465618B
:10151000636865724F72616E676500001673F9004B
:10152000E4EA05087C00000069554700424D53205D
:10153000446961672076322E31000000B8A3940020
:10154000CCAC050843414E005EC5220088770508F3
:1015500055445300534F430034C0012055413300DC
:10156000F6823B0018C0012037382500FCFAF8004D
:10157000309E060830C00120BEA1C148006827F097
:101580008BFBC0481FF0C0FC002201460090BC4805
:1015900000682DF006FF0022BB49B94800682DF015
:1015A00011FF6FF0310300220521B548006828F0D3
:1015B0005BFE079826F068FB8346B4A1584627F0E7
:1015C0006BFBB0481FF0A0FC00220146009058467B
:1015D0002DF0E7FE0022AC4958462DF0F3FE6FF0E7
:1015E0001F0300220521584628F03EFE089829F0E6
:1015F0006FFB05904FF4AE724FF4F07105982DF02B
:101600006AFC00231A460821059828F02DFEA248FE
:101610001FF07AFC00220146009005982DF0ADFDE8
:101620000022114605982DF0D1FD00220C210598CD
:101630002DF09EFE0022102105982DF04CFE102169
:10164000059829F07FFA012105982DF013FB02235C
:101650001A46002105982DF0EDFA059826F014FBA6
:1016600004908EA1049827F017FB91481FF04CFCC2
:1016700000220146009004982DF093FE00228D492F
:1016800004982DF09FFE64202DF0B8FF04462146FB
:1016900004982DF0CBFE059829F01AFB03906420E6
:1016A0002DF0ACFF04460122214603982DF013FCD7
:1016B00081481FF029FC00220146009003982DF07C
:1016C0005CFD0022114603982DF080FD7B4B7CA22F
:1016D0007DA1059816F02CFD7E4B7FA280A1059878
:1016E00016F026FD002380A281A1059816F020FDAA
:1016F000002382A283A1059816F01AFD002384A27C
:1017000085A1059816F014FD002386A287A10598EF
:1017100016F00EFD884B89A28AA1059816F008FDE7
:10172000059829F0D5FA029064202DF067FF044651
:101730000122214602982DF0CEFB5F481FF0E4FB0A
:1017400000220146009002982DF017FD002211465C
:1017500002982DF03BFD284629F0BAFA01903C2270
:101760004FF4487101982DF0B6FB00231A4605216D
:10177000019828F079FD76481FF0C6FB002201464B
:10178000009001982DF0F9FC0022114601982DF0EF
:101790001DFD0022114601982DF0EAFD00220821CE
:1017A00001982DF098FD1021019829F0CBF90198AE
:1017B00026F06AFA064667A1304627F06DFA6748B8
:1017C0001FF0A2FB00220146009030462DF0E9FDFB
:1017D00000222D4930462DF0F5FD00231A46072141
:1017E000304628F041FD019826F04EFA5C49086029
:1017F0005CA15B48006827F04FFA64481FF084FB47
:10180000002201460090564800682DF0CAFD0022D3
:101810001D49534800682DF0D5FD002008231422EF
:10182000314600904E48006828F030FD019826F0BF
:101830002BFA5749086057A15548006827F02CFA41
:1018400052481FF061FB002201460090504800689A
:101850002DF0A7FD00220C494D4800682DF0B2FD87
:1018600000231A4608214A48006828F0FDFC0DB004
:10187000BDE8F08F534F483A20393525000000006D
:1018800030C001208B7464008877050843656C6C58
:10189000733A2034530000003B291E00202042618F
:1018A0007474657279204C697665204461746100B6
:1018B000F0E8E200E4EA0508554133001CC00120CD
:1018C00031322E3630205600546F74616C20566FC2
:1018D0006C74000020C001202D322E332041000006
:1018E00043757272656E7400332E363520560000D3
:1018F00043656C6C204D617800000000332E353854
:101900002056000043656C6C204D696E000000009D
:10191000333520430000000054656D70204D617820
:1019200000000000323820430000000054656D7054
:10193000204D696E0000000024C0012044697363DB
:10194000686700004368672F446973636867000035
:101950002A170F004454433A000000001673F900A0
:1019600028C00120307846313030205B4143545D3F
:1019700020203078463130312020307846313032E6
:10198000202030784631303300000000B8A39400A6
:101990002CC0012043414E3A20300000F0B5B1B0D8
:1019A0005E4803785EA2202129A804F0CFF829A977
:1019B0005D48006827F070F9584801785B48006876
:1019C0001DF0C8F95A4803785AA2202129A804F02A
:1019D000BDF829A95A48006827F05EF959480088DF
:1019E0004FF47A7190FBF1F201FB12045548008824
:1019F00090FBF1F6334654A2202129A8009404F06C
:101A0000A5F829A95348006827F046F95248B0F9CB
:101A10000000002804DA5048B0F90000404202E01B
:101A20004D48B0F9000004B24FF47A7094FBF0F125
:101A300000FB1140642190FBF1F64FF47A7094FBA7
:101A4000F0F74548CDE90076B0F90000002801DA4A
:101A500042A000E033A0034641A2202129A804F0BF
:101A600075F829A94148006827F016F94048007820
:101A7000012801D13FA006E03D480078022801D1AD
:101A80003FA000E041A0054629464248006827F0F3
:101A900003F9802109A8FEF710FC00241FE03E484E
:101AA00000EBC400407950B13B4850F8340020F0BE
:101AB0007F433AA2202101A804F048F809E0364803
:101AC00050F8340020F07F4338A2202101A804F010
:101AD0003DF801A909A8FEF7FBFB601CC4B236481B
:101AE00000788442DBDB3448007818B933A109A8B8
:101AF000FEF71CFC09A93348006827F0CDF83248EE
:101B000032A22021036829A804F020F829A932482C
:101B1000006827F0C1F831B0F0BD000004000020DB
:101B2000256425250000000018C0012034C00120D4
:101B300005000020534F483A202564252500000069
:101B400030C001200000002025642E2530326420A2
:101B5000560000001CC00120020000202D000000E3
:101B6000257325642E2564204100000020C001203B
:101B70000C0000204368617267696E670000000016
:101B80004469736368617267696E670049646C6574
:101B90000000000024C001203800002030782530EB
:101BA000346C58205B4143545D2020003078253050
:101BB000346C582020000000780000204E6F204434
:101BC0005443000028C001207C00002043414E3ACD
:101BD00020256C75000000002CC0012010B50246C5
:101BE00092F82030012B01D0022B06D110684069F9
:101BF000084314686061002010BD506A40F48020E2
:101C000050620120F8E7F0B504460D461E4694F8F0
:101C1000207020688368A86800B900E000BF012F29
:101C200001D0022F7DD103F0806030B903F0006055
:101C300018B903F0805000287ED0C3F30161012061
:101C400088403060A86860B9B5F800C0E86840EA2C
:101C50004C5C206800F5C07000EB0110C0F800C0BB
:101C60000FE0D5E901C040EACC00D5F80CC040EA4D
:101C70000C00D4F800C00CF5C07C0CEB011CCCF8B7
:101C80000000D5F810C0206800F5C07000EB01100E
:101C9000C0F804C0287D01280ED1206800F5C0706E
:101CA00000EB0110406840F4807C206800F5C070B3
:101CB00000EB0110C0F804C0D079000692F806C00D
:101CC00040EA0C4092F805C040EA0C2092F804C0AB
:101CD00040EA0C00D4F800C00CF5C07C0CEB011CF1
:101CE000CCF80C00D078000692F802C040EA0C4014
:101CF00092F801C040EA0C2092F800C040EA0C00C3
:101D0000D4F800C00CF5C07C0CEB011CCCF808002A
:101D1000206800F5C07000EB0110006840F0010C75
:101D200001E00FE008E0206800F5C07000EB011052
:101D3000C0F800C00020F0BD606A40F4001060628E
:101D40000120F8E7606A40F4802060620120F2E739
:101D5000F0B504460A4694F82050012D01D0022D1A
:101D60007ED1424901F50071086840F00100086029
:101D7000086820F47C5008600868566A40EA06202B
:101D80000860107D00F01F06012000FA06F3C86904
:101D90009843C861A1F50071D069C8B9D1F80C02A7
:101DA0009843C1F80C02908880B2968940EA0646B2
:101DB00001F51070576940F83760108880B21689B5
:101DC00040EA064601F51070576900EBC70046600F
:101DD000D069012819D1D1F80C021843C1F80C02BE
:101DE000908880B2168840EA064601F5107057695F
:101DF00040F83760908980B2168940EA064601F5BE
:101E00001070576900EBC7004660906928B9D1F897
:101E100004029843C1F8040204E0D1F80402184314
:101E2000C1F80402106928B9D1F814029843C1F826
:101E3000140204E0D1F814021843C1F81402106A25
:101E4000012804D1D1F81C021843C1F81C02D1F8B2
:101E5000000220F00100C1F800020020F0BDFFE701
:101E6000606A40F4802060620120F7E7006400406F
:101E7000704770B5044694F82050012D01D0022D12
:101E80007DD151B92068C06800F0030080B9606A54
:101E900040F400106062012070BD2068006900F00D
:101EA000030028B9606A40F4001060620120F3E783
:101EB000206800F5D87000EB0110006800F0040005
:101EC0009060906840B9206800F5D87000EB011070
:101ED0000068400D106007E0206800F5D87000EB46
:101EE00001100068C0085060206800F5D87000EB51
:101EF0000110006800F00200D060206800F5D87082
:101F000000EB0110406800F00F00082802D3082001
:101F1000106108E0206800F5D87000EB01104068FF
:101F200000F00F001061206800F5D87000EB011080
:101F3000406800F47F40000A9061206800F5D87086
:101F400000EB01104068000C5061206800F5D8706B
:101F500000EB011080681870206800F5D87000EB65
:101F60000110806800F47F40000A5870206800F576
:101F7000D87000EB0110806800F47F0000E03CE0C6
:101F8000000C9870206800F5D87000EB0110806894
:101F9000000ED870206800F5D87000EB0110C06802
:101FA0001871206800F5D87000EB0110C06800F4CB
:101FB0007F40000A5871206800F5D87000EB0110CE
:101FC000C06800F47F00000C9871206800F5D8709C
:101FD00000EB0110C068000ED87131B92068C068EC
:101FE00040F020002668F06005E02068006940F0BD
:101FF00020002668306100204EE7606A40F48020AF
:102000006062012048E72DE9F05F04460025206862
:1020100046692068D0F80490206887682068D0F866
:102020000CA02068D0F810B02068D0F8188006F016
:102030000100002855D007F00100C0B1012021683F
:10204000886007F0020018B1204600F088FA0EE020
:1020500007F0040010B145F4006508E007F008003F
:1020600010B145F4805502E0204600F077FA07F4FD
:102070008070C8B14FF480702168886007F40070E8
:1020800018B1204600F06DFA0EE007F4806010B140
:1020900045F4005508E007F4006010B145F48045B0
:1020A00002E0204600F05CFA07F48030C8B14FF43B
:1020B00080302168886007F4003018B1204600F0B5
:1020C00052FA0EE007F4802010B145F4004508E014
:1020D00007F4002010B145F4803502E0204600F0FE
:1020E00041FA06F0080038B10AF0100020B145F4BA
:1020F000007510202168C86006F0040040B10AF0A5
:10210000080028B108202168C860204600F0A8F91E
:1021100006F0020038B12068C06800F0030010B17A
:10212000204600F09FF906F0400038B10BF0100097
:1021300020B145F4806510202168086106F0200078
:1021400040B10BF0080028B1082021680861204642
:1021500000F0D2F906F0100038B12068006900F0F4
:10216000030010B1204600F0C8F906F4003040B179
:1021700009F0100028B1102021684860204600F0C6
:10218000BDF906F4803040B109F0080028B10820FC
:1021900021684860204600F0E7F906F4004088B363
:1021A00009F0040078B306F4807020B108F0010053
:1021B00008B145F0010506F4007020B108F00200F6
:1021C00008B145F0020506F4806020B108F0040073
:1021D00008B145F0040506F40060A0B108F07000F5
:1021E00088B108F07000402817D006DC10280BD00A
:1021F00020280CD0302819D10CE0502810D06028AD
:1022000014D110E01DE019E045F008050FE045F09D
:1022100010050CE045F0200509E045F0400506E01A
:1022200045F0800503E045F4807500E000BF00BF85
:102230002068806920F0700021688861042021688E
:1022400048602DB1606A284360622046FFF710FEA7
:10225000BDE8F09F70B504460CB9012070BD94F83C
:10226000200010B9204600F0AFF82068006840F068
:1022700001002168086000F0C5FF05460DE000F090
:10228000C1FF401B0A2808D9606A40F40030606230
:10229000052084F820000120E0E72068406800F075
:1022A00001000028EBD02068006820F002002168BF
:1022B000086000F0A7FF05460DE000F0A3FF401BFB
:1022C0000A2808D9606A40F400306062052084F86A
:1022D00020000120C2E72068406800F002000028CA
:1022E000EBD1207E012806D12068006840F08000F4
:1022F0002168086005E02068006820F080002168FF
:102300000860607E012806D12068006840F0400027
:102310002168086005E02068006820F0400021681E
:102320000860A07E012806D12068006840F02000E7
:102330002168086005E02068006820F0200021681E
:102340000860E07E012806D12068006820F01000B7
:102350002168086005E02068006840F010002168EE
:102360000860207F012806D12068006840F008003E
:102370002168086005E02068006820F008002168F6
:102380000860607F012806D12068006840F00400E2
:102390002168086005E02068006820F004002168DA
:1023A0000860D4E9020108432169084361690843D0
:1023B0006168491E08432168C861002060620120ED
:1023C00084F82000002049E710B586B004461421A7
:1023D00001A8FDF772FF1F492068884238D100BF6D
:1023E000002000901C48006840F000701A49086006
:1023F0000846006800F00070009000BF00BF00BFFA
:102400000020009014481038006840F00100124984
:10241000103908600846006800F00100009000BF15
:1024200000BF4FF4C05001900220029000200390A2
:10243000032004900920059001A9084800F0D8FD68
:1024400000221146142000F081FF142000F06AFFE2
:1024500006B010BD00640040403802400000024059
:102460007047000010B58AB004461F4920688842B2
:1024700037D12068C068C0F3001010B11020216867
:10248000C86001AB03AA00212046FFF7F2FC38BB6D
:102490000398B0F5FC6F04D040F2DF7103988842D6
:1024A00012D11C2203A91148FDF7E0FE002005E02F
:1024B00001A9095C0E4A1154411CC8B20828F7DB77
:1024C00001200C4908700BE00398B0F5A06F07D30A
:1024D0000398B0F5C06F03D201A9039802F0D6F9B2
:1024E00000BF0AB010BD00000064004018D40120F5
:1024F000900000209800002070477047704770B52A
:10250000044694F82000012822D1022084F82000FB
:102510002068006820F001002168086000F072FE69
:1025200005460DE000F06EFE401B0A2808D9606ADF
:1025300040F400306062052084F82000012070BD66
:102540002068406800F001000028EBD16062F6E7E7
:10255000606A40F4002060620120F0E77047704735
:1025600070477047704770477047000070B5044669
:1025700000F048FE06462546681C10B10448007865
:10258000054400BF00F03EFE801BA842FAD370BD98
:1025900048C001207047024609B901207047106801
:1025A0000068C0F3001081F828001068006800F08F
:1025B0006000486210680068C0F3402080F00100AD
:1025C00081F8200010680068C0F30040C8771068E8
:1025D0000068C0F3403080F0010088771068006820
:1025E000C0F3003008771068006800F4006088616C
:1025F0001068006800F48040486110680068C0F30B
:10260000805080F00100487410680068C0F3C0502A
:1026100080F00100087410680068C0F3C010C8732F
:102620001068006800F46020886010680068C0F3DB
:102630008020087110680068C0F3406088731068DB
:102640008069C0F3400081F8540010688069C0F3CD
:10265000C01080F0010081F84C001068806900F023
:102660003000086510688069000C88641068806913
:10267000C0F3800081F8560010688069C0F3C00084
:1026800081F85500002089E72DE9F04104462068D3
:10269000876B206800F580504569206800F5805000
:1026A000C6693848D0F8008005F0400050B106F007
:1026B000400038B13449206800F58050416120461F
:1026C00000F07AFA05F0010058B106F0010040B1BF
:1026D0004FF00111206800F580504161204600F064
:1026E000E9FB05F4004088B306F4004070B3D4F869
:1026F000880040F00800C4F8880005F40050A8B134
:10270000206800F58050406920490840C4F88C00DA
:10271000206800F58050C06920F4C031206800F5C1
:102720008050C161E020C4F884000CE0206800F50E
:102730008050406948F280610840C4F88C002068ED
:1027400000F5805041612046FFF724FF07F00800A4
:1027500058B12068C06A00F06000C4F894002046B8
:1027600000F052F90020C4F8940008F4002030B1C1
:102770004FF4002003490860204600F09CFBBDE8B0
:10278000F0810000143C01404000010000207E0068
:1027900038B504460CB9012038BDD4F8840028B9F6
:1027A0002020C4F88400204600F074F800BF002008
:1027B00000903548006840F480403349086008467E
:1027C000006800F48040009000BF00BF2F48006800
:1027D00020F400002D49086008460068A1680843FD
:1027E0002A49086008460068206800F580500068A3
:1027F00040F00101206800F58050016000F002FD0A
:1028000005460DE000F0FEFC401BB0F5FA7F07D94D
:102810000420C4F88800E020C4F884000120BBE74D
:10282000206800F58050006800F001000028E9D120
:102830002046FEF739F92046FEF7C1F82046FEF79C
:1028400084F8002120466268FEF714F92068C06B06
:1028500040F402702168C8632068D0F80C010C496C
:1028600008432168C1F80C012068D0F8100140F439
:1028700003102168C1F810010020C4F8880010205E
:10288000C4F88400002087E744380240043801403F
:102890006000020010B586B00446142101A8FDF7BF
:1028A0000CFD5249206888427ED100BF00BF002045
:1028B00000904F48006840F000704D49086008469D
:1028C000006800F00070009000BF00BF00BF002053
:1028D00000900846006840F0806008600846006884
:1028E00000F08060009000BF00BF00BF002000909B
:1028F0000846006840F0006008600846006800F084
:102900000060009000BF00BF00BF00BF002000902B
:102910000846006840F0040008600846006800F0BF
:102920000400009000BF00BF00BF002000900846D8
:10293000006840F0010008600846006800F00100EF
:10294000009000BF00BF00BF002000900846006854
:1029500040F0400008600846006800F04000009029
:1029600000BF00BF3220019002200290002003909F
:10297000032004900B20059001A91E4800F038FBAD
:1029800086200190022002900020039003200490F2
:102990000B20059001A9184800F02AFB4FF4D04005
:1029A00001900220029000E01DE00020039003202F
:1029B00004900B20059001A9104800F019FB00229B
:1029C00011463D2000F0C2FC0D48006800F5805023
:1029D000C0690C4908400A49096801F58051C8617D
:1029E0003D2000F089FC06B010BD000000800240D0
:1029F0003038024000080240000002400018024047
:102A0000404D0120BEFFFEFF70472DE9F05F0446F8
:102A10000F464FF00008C34647B9D4F8880040F08D
:102A20000100C4F888000120BDE8F09FD4F88400BC
:102A3000402801D00120F7E7E66D04F1480050F886
:102A40002650E06EC0F1040A3EE0286800F4807071
:102A500018B1E969A167A9696167286800F4007085
:102A600008B9E06F20B3286800F4007010B10021AD
:102A7000216661662868C0F30D49286800F48070FB
:102A800018B1296821674FF0010BA86828621FFA66
:102A900089F304F18001081F2A6A00F08EF8206E85
:102AA000401C2066606E00EB090161660020286210
:102AB00000BF761C042E00D3361F00BF04F148006F
:102AC00050F8265008F10108286800F0004020B9AD
:102AD000D04502D2BBF1000FB7D0E06E00EB080189
:102AE000E166E06E10B12046FEF71EFAE665BBF126
:102AF000010F05D1E06F38600021E167002093E706
:102B0000012091E72DE9F04705460E461746984605
:102B10002868046904F01C044FF4784000EAC620D9
:102B200004434FF4F86000EA8710044324F00204E1
:102B300044F001042868046100F064FB81460BE066
:102B400000F060FBA0EB0900B0F5803F02D301204C
:102B5000BDE8F0872868046904F001000028EFD17F
:102B60002868406980B2C8F800000020F0E7000043
:102B70007CB504460D4832F0EDFB054685B105F104
:102B8000200020600A4828614FF4C06120682B466D
:102B90004122CDE900010021084633F0E5FC04E0C4
:102BA000012004490870002020607CBD40A2060876
:102BB000E96C040828C101207047F0B504460D46B1
:102BC00021462E46A2F1200000270760078143819D
:102BD0000F680FB9086001E0376838603060086836
:102BE00003E007891F44078100680028F9D1F0BD80
:102BF00070B504460D460DB9012070BDD4F88400AF
:102C0000102805D129462046FEF710F90020F4E7E8
:102C10000120F2E770B506463068046924F01C0410
:102C200000F0B6FC05460D48854202D244F0080487
:102C300011E00B48854202D244F00C040BE0094835
:102C4000854200D207E00848854202D244F00404DD
:102C500001E044F010043068046170BDC00E16023B
:102C60000087930300E1F50580D1F00870B50446B4
:102C7000D4F88400102849D12020C4F88400012110
:102C8000A1650421E1662046FEF74EF9206805683B
:102C90000120FFF76BFC20680560206800F580507C
:102CA000806940F40051206800F5805081612068FF
:102CB00000F58050806940F00201206800F58050E6
:102CC00081612046FDF7ACFE2068006840F00800F6
:102CD00021680860206805680120FFF747FC20682C
:102CE00005602068006840F00400216808602068E2
:102CF00000F58050C06906490843216801F58051FC
:102D0000C8614020C4F88400002070BD0120FCE7A9
:102D1000C1A001002DE9F0410446D4F88400402808
:102D200052D12020C4F88400206800F58050C0698A
:102D300026490840216801F58051C861206800F5E6
:102D40008050806920F40051206800F58050816136
:102D5000206800F58050806920F00201206800F5AD
:102D6000805081612068006820F0040021680860BC
:102D7000206807680120FFF7F9FB206807602046FC
:102D8000FDF74EFE2068006820F00800216808600A
:102D9000206807680120FFF7E9FB2068076000252D
:102DA00008E004F1480050F82560706840F00040E9
:102DB00070606D1C042DF4D30021A1651020C4F8AF
:102DC00084000020BDE8F0810120FBE73E5FFEFFAC
:102DD0002DE9F041044688461546B8F1000F08D1A8
:102DE000D4F8880040F00100C4F888000120BDE854
:102DF000F081D4F8840040285AD100224146204670
:102E0000FDF7DEFE38B1D4F8880040F00200C4F8C7
:102E100088000120EBE7BFF34F8F04F11800A16A8F
:102E200050F8217000BFA06A401CA062A06A04286C
:102E300002D3A06A001FA06200BF04F11800A16ABB
:102E400050F82110206800F58050416000F0DAF958
:102E5000064627E0206800F58050406900F40050E5
:102E600068B1D4F8880040F00800C4F888002068F1
:102E700000F580504069C4F88C000120B7E7681C59
:102E800080B100F0BFF9801BA84200D855B9D4F832
:102E9000880040F00400C4F888004FF040503860CB
:102EA0000120A4E7386800F000400028D2D19EE756
:102EB00001209CE7704770472DE9F04705460E4614
:102EC000174698462868046904F01C044FF47840BB
:102ED00000EAC62004434FF4F86000EA8710044378
:102EE00044F0020444F001041FFA88F029684861A4
:102EF0002868046100F086F981460BE000F082F951
:102F0000A0EB0900B0F5803F02D30120BDE8F087B7
:102F10002868046904F001000028EFD100BFF5E73C
:102F200000B587B0142102A8FDF7C7F92A48006848
:102F300008B107B000BD01202749086000BF00208C
:102F400001902648006840F00100244908600846C6
:102F5000006800F00100019000BF00BF88140290DB
:102F60000220039000200490032005900C2006907E
:102F700002A91B4800F03CF84FF680700290022036
:102F8000039000200490032005900C20069002A9D5
:102F9000144800F02DF84CF2337002900220039098
:102FA00000200490032005900C20069002A90E48F2
:102FB00000F01EF84FF48050029002200390002091
:102FC0000490032005900C20069002A9074800F009
:102FD0000FF800BFADE7000038C0012038380240CC
:102FE0000014024000100240000C02400018024091
:102FF000F8B502460B460025002400200021D6E04B
:10300000012606FA01F51E6806EA0504AC4274D1F1
:103010001E7906F00306012E04D01E7906F0030681
:10302000022E13D190684F000326BE40B0434F00DC
:10303000DE68BE4030439060506801268E40B04349
:103040001E79C6F300168E40304350601E7906F09C
:103050000306032E09D0D0684F000326BE40B043BC
:103060004F009E68BE403043D0601E7906F00306D4
:10307000022E13D1CF0802F1200656F827004E0782
:10308000F70E0F26BE40B0434F07FF0E1E69BE402D
:103090003043CF0802F1200646F8270010684F00A1
:1030A0000326BE40B0431E7906F003064F00BE4023
:1030B000304310605E6806F44036002E76D000BFC4
:1030C000002600963C4E366846F480463A4F3E60F5
:1030D0003E46366806F48046009600BF00BF374E75
:1030E0008F0856F827008E07370F0F26BE40B043D3
:1030F000334EB24202D1002624E057E0314EB242B4
:1031000001D101261EE0304EB24201D1022619E063
:103110002E4EB24201D1032614E02D4EB24201D10F
:1031200004260FE02B4EB24201D105260AE02A4EBA
:10313000B24201D1062605E0284EB24201D107264F
:1031400000E008268F073F0FBE4030431B4E8F081C
:1031500046F82700224E3068A0435E6806F48016C9
:1031600006B120431E4E3060361D3068A0435E68B5
:1031700006F4001606B12043194E361D3060184E75
:10318000361F3068A0435E6806F4003606B120435F
:10319000134E361F3060361F3068A0435E6806F459
:1031A000803606B120430E4E083E3060491C10297F
:1031B000FFF426AFF8BD0000443802400838014053
:1031C000000002400004024000080240000C0240DF
:1031D000001002400014024000180240001C02408F
:1031E000083C014010B5426921EA020302EA0104E9
:1031F00043EA0443836110BD0AB1816101E00B041D
:1032000083617047014800687047000040C001209A
:103210000348006803490978084401490860704779
:1032200040C0012048C0012010B50D48006840F49E
:1032300000700B4908600846006840F48060086030
:103240000846006840F480700860032000F0BCF875
:103250000F2000F007F800F02BF8002010BD000050
:10326000003C024070B504460E4800784FF47A7175
:10327000B1FBF0F00C490968B1FBF0F5284600F00D
:1032800087FC08B1012070BD102C07D20022214616
:10329000501E00F05BF80548046001E00120F2E7F1
:1032A0000020F0E748C00120C400002044C00120F5
:1032B00008B500BF002000900E48006840F4804030
:1032C0000C4908600846006800F48040009000BF88
:1032D00000BF00BF00200090081F006840F0805031
:1032E000091F08600846006800F08050009000BF89
:1032F00000BF08BD4438024010B50146084600280A
:103300000BDB00F01F0301229A40054B440943F8F0
:103310002420BFF34F8FBFF36F8F00BF10BD00009D
:1033200080E100E00146084600280DDB00BF00BF39
:1033300000F01F0301229A4043099B0003F1E023A0
:10334000C3F8002100BF00BF00BF70472DE9F05F48
:1033500080460D461646002702F012FC0746394605
:103360002A46334601F00700C0F1070ABAF1040FFC
:1033700002D94FF0040A01E0C0F1070AD14600F17A
:10338000040ABAF1070F02D24FF0000A01E0A0F1DF
:10339000030AD4464FF0010A0AFA09FAAAF1010A0F
:1033A0000AEA020A0AFA0CFA4FF0010B0BFA0CFBBC
:1033B000ABF1010B0BEA030B4AEA0B042146404632
:1033C00002F0E6FBBDE8F09F00BF00F00702064BED
:1033D00019684FF6FF031940044B0B4343EA0221DF
:1033E000014B196000BF70470CED00E00000FA05CA
:1033F00008B501200349086203480068009000BF37
:1034000008BD000000000E420070004070B5044688
:103410000D460CB9012070BD5848006800F0070047
:10342000A84209D255490D700846006800F007000F
:10343000A84201D00120EEE7207800F00200022827
:103440001DD1207800F00400042805D14C48006804
:1034500040F4E0504A490860207800F0080008284D
:1034600005D14748006840F4604045490860444839
:10347000006820F0F000A168084341490860207806
:1034800000F00100A8B36068012807D13C48083863
:103490000068C0F34040B8B90120BCE7606802286A
:1034A00002D06068032807D1354808380068C0F3A7
:1034B000406048B90120AEE7314808380068C0F3E1
:1034C000400008B90120A6E72D48006820F003005D
:1034D000616808432A490860FFF794FE064609E040
:1034E000FFF790FE801B41F28831884202D9032009
:1034F00091E707E02248006800F00C006168B0EB3B
:10350000810FEDD11D48006800F00700A84209D9DD
:103510001A490D700846006800F00700A84201D063
:10352000012078E7207800F00400042807D114482F
:10353000006820F4E050E1680843114908602078F1
:1035400000F00800082808D10D48006820F4604009
:10355000216940EAC1000A49086000F03FF80849C3
:103560000968C1F30311074A515CC8400649086065
:1035700006480068FFF776FE00204CE7003C02405A
:1035800008380240CE3D0508C400002044C0012098
:103590000148006870470000C400002000B5FFF734
:1035A000F7FF04490968C1F38221034A515CC8400E
:1035B00000BD000008380240DE3D050800B5FFF7F9
:1035C000E7FF04490968C1F34231034A515CC8402E
:1035D00000BD000008380240DE3D05082DE9F04737
:1035E000002400250026A1462548006800F00C00B4
:1035F00020B1042805D008283AD105E0DFF88490EE
:1036000039E0DFF8849036E01D48001F006800F0C4
:103610003F041B48001F006800F4800078B11A487E
:103620001749091F0968C1F38811A0FB0170014601
:10363000224600233846FCF7C5FD05460EE011483A
:103640000F49091F0968C1F38811A0FB01700146E9
:10365000224600233846FCF7B5FD05460848001F02
:103660000068C0F30140401C4600B5FBF6F902E0DB
:10367000DFF8109000BF00BF4846BDE8F0870000AB
:10368000083802400024F40000127A00F8B504461D
:103690000CB90120F8BD207800F00100002874D09A
:1036A000F948006800F00C0004280DD0F6480068C6
:1036B00000F00C00082813D1F348001F006800F444
:1036C0008000B0F5800F0BD1EF4808380068C0F3D8
:1036D0004040002859D06068002856D10120D9E721
:1036E00000BF6068B0F5803F08D1E748083800683F
:1036F00040F48030E449083908601EE06068B0F5A5
:10370000A02F0DD1E0480838006840F48020DE4941
:10371000083908600846006840F4803008600CE012
:10372000D9480838006820F48030D7490839086043
:103730000846006820F48020086000BF606890B1EF
:10374000FFF760FD054606E0FFF75CFD401B6428BF
:1037500001D903209EE7CC4808380068C0F34040F8
:103760000028F1D011E0FFF74DFD054606E0FFF718
:1037700049FD401B642801D903208BE7C248083863
:103780000068C0F340400028F1D1207800F002002A
:1037900002285FD1BC48006800F00C0058B1BA485C
:1037A000006800F00C0008281CD1B748001F006812
:1037B00000F48000B0B9B44808380068C0F3400095
:1037C00020B1E068012801D0012063E7AE48083845
:1037D000006820F0F800216940EAC100AA490839D0
:1037E000086037E0E06800B30120A8490860FFF7EF
:1037F00009FD054606E0FFF705FD401B022801D93B
:10380000032047E7A04808380068C0F340000028BC
:10381000F1D09D480838006820F0F800216940EA9E
:10382000C10099490839086014E0002097490860F0
:10383000FFF7E8FC054606E0FFF7E4FC401B022822
:1038400001D9032026E7904808380068C0F34000FB
:103850000028F1D1207800F0080008282CD16069F8
:10386000A8B101208A490860FFF7CCFC054606E0B4
:10387000FFF7C8FC401B022801D903200AE7824851
:103880006C300068C0F340000028F1D014E0002044
:103890007F490860FFF7B6FC054606E0FFF7B2FC7B
:1038A000401B022801D90320F4E677486C300068F9
:1038B000C0F340000028F1D1207800F00400042873
:1038C00070D1002770483830006800F0805090B9FF
:1038D00000BF002000906C483830006840F08050F5
:1038E0006949383108600846006800F0805000904F
:1038F00000BF00BF01276748006800F48070B0B9BE
:103900006448006840F4807062490860FFF77AFC00
:10391000054606E0FFF776FC401B022801D903208C
:10392000B8E65C48006800F480700028F2D000BF60
:10393000A068012808D154486830006840F00100B0
:103940005149683108601DE0A06805280DD14E4836
:103950006830006840F004004B4968310860084650
:10396000006840F0010008600CE0474868300068DB
:1039700020F001004449683108600846006820F0E2
:103980000400086000BFA068A8B1FFF73BFC054633
:1039900009E0FFF737FC401B41F28831884202D929
:1039A000032077E626E0384868300068C0F340001E
:1039B0000028EED013E0FFF725FC054608E0FFF7EE
:1039C00021FC401B41F28831884201D9032061E685
:1039D0002D4868300068C0F340000028EFD1012F67
:1039E00007D129483830006820F080502649383106
:1039F000086000BFA069002845D02348006800F097
:103A00000C0008285DD0A069022845D100201F497C
:103A10000866FFF7F7FB054606E0FFF7F3FB401BE0
:103A2000022801D9032035E6174808380068C0F39A
:103A300040600028F1D1D4E907010843616A40EAF7
:103A400081110122A06AC2EB500041EA00412C2002
:103A5000005D41EA00600C49091F086001200B4924
:103A60000866FFF7CFFB054606E0FFF7CBFB401BE0
:103A7000022801D903200DE6034808380068C0F386
:103A800040600028F1D049E0083802400000474279
:103A9000800E474200700040002021490866FFF771
:103AA000B1FB054606E0FFF7ADFB401B022801D93C
:103AB0000320EFE51B480068C0F340600028F2D106
:103AC0002CE0A069012800D1E4E51648001D066835
:103AD000A069012820D006F48001E06981421BD151
:103AE00006F03F01206A814216D147F6C07030408F
:103AF000616AB0EB811F0FD106F440310122A06A48
:103B0000C2EB5000B1EB004F06D106F070612C20E3
:103B1000005DB1EB006F01D00120BBE50020B9E5ED
:103B2000000047420038024070B504460E46154674
:103B30000CB9012070BD94F8490028B9002084F820
:103B40004800204600F01FF804F108012068FDF746
:103B500079FA3146A2682068FDF7B0FA2946236B4E
:103B6000D4E90102FDF74CFAA168206850F8210061
:103B700040F00100A268216841F82200012084F889
:103B800049000020D6E710B50446FFF7C9F910BD7B
:103B900070B504462546681EB0F1807F01D3012030
:103BA0000FE0681E4FF0E02148610F214FF0FF3019
:103BB00001F0EEFF00204FF0E0218861072008614E
:103BC000002070BD10B504460CB9012010BDA069DD
:103BD00000B100E000BF94F8410028B9002084F84B
:103BE0004000204600F02AF8242084F84100206894
:103BF000C06820F400502168C860204601F088F8B1
:103C00002068006920F490402168086120684069BC
:103C100020F02A00216848612068C06840F4005004
:103C20002168C86000206064202084F8410084F886
:103C300042000020606300BFC8E7000010B586B0F6
:103C40000446142101A8FCF738FB1B492068884270
:103C500030D100BF002000901848006840F01000EC
:103C6000164908600846006800F01000009000BF88
:103C700000BF00BF0020009010481438006840F0DA
:103C800001000E49143908600846006800F0010080
:103C9000009000BF00BF4FF4C0600190022002906E
:103CA00000200390032004900720059001A90448F8
:103CB000FFF79EF906B010BD0010014044380240E5
:103CC000000002402DE9F84F04460E46174699467B
:103CD0004FF0000A94F84100202850D106B117B9DE
:103CE0000120BDE8F88F00206064212084F84100A5
:103CF000FFF788FA8246A784E784A068B0F5805F62
:103D000004D1206910B90025B04602E035464FF0D5
:103D100000081EE05346002280212046CDF8009086
:103D200001F00CF920B1202084F841000320D8E7ED
:103D300045B9B8F80000C0F308002168486008F1F0
:103D4000020803E02878216848606D1CE08C401E62
:103D5000E084E08C0028DDD153460022402120463B
:103D6000CDF8009001F0EAF820B1202084F841005D
:103D70000320B6E7202084F841000020B1E70220AC
:103D8000AFE700BFFEE700002DE9F0418AB004462E
:103D90002078061136B1012E1AD0022E42D0032E01
:103DA0007ED18AE0207800F00F05002D0FDD072D71
:103DB0000DDC002005E0411C615C694A1154411C86
:103DC000C8B2A842F7DB2946654800F028FEC2E0E9
:103DD0006078217801F00F0140EA012061490880F4
:103DE00008460088072817DD08460088B0F5006FF0
:103DF00012DC002005E0811C615C594A1154411C11
:103E0000C8B20628F7DB0620574908800120574929
:103E1000087000F01BF904E0002052490880524964
:103E2000088098E0207800F00F075048007887421B
:103E30003DD14C4800884C490988401A1FFA80F847
:103E4000B8F1070F01DB072000E04046C5B20020B3
:103E50000DE0411C625C44490B880988491CDFF86D
:103E600008C1ACF800103E49CA54411CC8B2A8426F
:103E7000EFDB3E480078401C3C490870084600785B
:103E80000F2801DD0020087037480088354909886F
:103E900088420BDB33480188314800F0C0FD00E068
:103EA00058E000202F4908802F49088004E00020B6
:103EB0002C4908802C4908804DE044E02CA103C91E
:103EC000CDE902014FF4FD600490002007900690B8
:103ED000082008902848007800F00F0040F02000EB
:103EE0008DF808002548008825490988401A87B2BE
:103EF000072F01DB072000E03846C5B200200BE0A9
:103F00001F490A880988491C1D4B19801D498A5C74
:103F1000411C02AB5A54C8B2A842F1DB01AB02AA61
:103F200004A91948FDF76FFE13480078401C124998
:103F30000870084600780F2801DD002008700A206C
:103F4000FEF714FB00BF0E4800880C490988884220
:103F5000B4DB00E000BF00BF0AB0BDE8F0810000A4
:103F600098C1012000C0012002C0012004C001202E
:103F7000AAAAAAAAAAAAAAAA0AC0012006C001201F
:103F800008C0012098C9012034D4012030B589B07F
:103F900005460C4626A103C9CDE901014FF4FD6099
:103FA000039000200690059008200790072C12DC53
:103FB000E0B28DF80400002004E02A5C411C01AB53
:103FC0005A54C8B2A042F8DB6B4601AA03A91A48AA
:103FD000FDF719FE29E0C4F3032040F010008DF82E
:103FE0000400E0B28DF80500002005E02A5C811C89
:103FF00001AB5A54411CC8B20628F7DB6B4601AA34
:1040000003A90D48FDF7FFFD0C48048006200C496C
:10401000088001200B490870062004E0295C0A4A48
:104020001154411C88B2A042F8DB09B030BD000039
:10403000AAAAAAAAAAAAAAAA34D4012006C0012020
:1040400008C001200AC0012098C9012000B589B02C
:104050004FF4FD6003900020069005900820079023
:1040600030208DF8040000208DF805008DF8060042
:10407000AA208DF807008DF808008DF809008DF84A
:104080000A008DF80B006B4601AA03A90248FDF750
:10409000BAFD09B000BD000034D4012038B5044693
:1040A000002000906A460121636920689847002833
:1040B00002DA6FF0040038BD6A46012163692068A6
:1040C0009847002802DA6FF00400F4E7009800F047
:1040D000040008B90120EEE76A4600216369206800
:1040E0009847002802DA6FF00400E4E7009800F433
:1040F0008050B0F5805F1FD0009800F40050B0F5FC
:10410000005F07D1009800F48070B0F5807F01D186
:104110000220D0E7009800F40050B0F5005F01D114
:104120000320C8E7009800F48070B0F5807F01D1CB
:104130000420C0E70520BEE76A461F2163692068A6
:104140009847002802DA6FF00400B4E7009800F402
:10415000805008B90620AEE7009800F01C0018282F
:1041600001D10220A7E7009800F01C00082801D127
:104170000320A0E7009800F01C00142801D10420BF
:1041800099E7052097E7F8B5044600200090002540
:104190000026606830BBA06808B1A0688047202076
:1041A0002060002513E06A4612212846636998477B
:1041B000002802DA6FF0040608E0009800F01F0003
:1041C000A84202D12560002603E000BF6D1C1F2D10
:1041D000E9D900BF20681F2801D96FF002060EB987
:1041E000012060603046F8BD02462AB1C86818B1A7
:1041F000886808B1086910B94FF0FF307047086847
:1042000090604B68D360CB6853618B6813610B6916
:1042100093610020F2E738B50446002000900025A5
:104220006A46002163692068984700280CDB0098E3
:1042300040F480500090236920680021009A98473C
:10424000002803DA2D1F01E06FF00405284638BD71
:1042500000B58BB01A481B49086006204860002151
:1042600018488160C1604FF4202101614FF4801132
:1042700041610021017641768176C17601774177EF
:10428000FDF7E8FF08B1FCF7A3FE002006900790B9
:104290000120089000200190029003900490059066
:1042A0000120099001A90748FDF752FD0548FEF7D6
:1042B00026F902210348FDF791FC0BB000BD000078
:1042C0000064004034D4012000B587B01C2168464A
:1042D000FBF7F3FF4FF0204018490860184848608A
:1042E0000620886000211548C160016110214161EC
:1042F00000218161C161016241624FF4805181629C
:104300000021C16201634163816341640420009024
:104310000F200190062002900F200390102004909F
:104320001120059000200690002269460348FFF7FF
:10433000FBFB08B1FCF74CFE07B000BD5CD40120CC
:10434000040100A000B587B0142102A8FBF7B5FF57
:1043500000BF002001905648006840F020005449FA
:1043600008600846006800F02000019000BF00BF10
:1043700000BF002001900846006840F080000860FF
:104380000846006800F08000019000BF00BF00BF39
:10439000002001900846006840F0040008600846CC
:1043A000006800F00400019000BF00BF00BF0020C3
:1043B00001900846006840F0010008600846006867
:1043C00000F00100019000BF00BF00BF002001907D
:1043D0000846006840F0100008600846006800F0D9
:1043E0001000019000BF00BF00BF002001900846F0
:1043F000006840F0020008600846006800F0020013
:10440000019000BF00BF00BF002001900846006877
:1044100040F0080008600846006800F008000190BD
:1044200000BF00BF00BF002001900846006840F0B8
:10443000400008600846006800F04000019000BF9E
:1044400000BF01224FF4C0611A48FEF7D5FE0022DA
:104450004FF400411848FEF7CFFE0122082117480B
:10446000FEF7CAFE4FF4C0600290012003900020C6
:104470000490059002A90F48FEF7BAFD4FF40040E2
:1044800002900120039000200490059002A90A48A0
:10449000FEF7AEFD0820029001200390002004905A
:1044A000059002A90548FEF7A3FD07B000BD000076
:1044B000303802400014024000040240000C024068
:1044C0000EB5AC207F49087010204870012088701C
:1044D0000A20C870FF207C4908704870887000204E
:1044E000C870AC207949087010204870012088708D
:1044F000C8702FF08DFB7348007800067149497829
:1045000040EA01406F49897840EA01206D49C97845
:10451000084302066B48007800066A49497840EA79
:1045200001406849897840EA01206649C978084312
:1045300000F47F4042EA00226248007800066149A8
:10454000497840EA01415F48807841EA00205D49AE
:10455000C978084300F47F0042EA102259480078E5
:1045600001065848407841EA00415648807841EABF
:1045700000205449C978084342EA10605449086051
:104580005148007800065049497840EA01404E49B8
:10459000897840EA01204C49C978084302064A4814
:1045A000007800064849497840EA01404649897840
:1045B00040EA01204449C978084300F47F4042EAB8
:1045C00000224148007800063F49497840EA01410D
:1045D0003D48807841EA00203B49C978084300F40F
:1045E0007F0042EA102238480078010636484078B9
:1045F00041EA00413448807841EA00203249C978D4
:10460000084342EA106033490860304800780006E9
:104610002E49497840EA01402C49897840EA012036
:104620002A49C97808430206284800780006274925
:10463000497840EA01402549897840EA0120234928
:10464000C978084300F47F4042EA00221F480078FE
:1046500000061E49497840EA01411C48807841EA39
:1046600000201A49C978084300F47F0042EA10226A
:104670001648007801061548407841EA0041134881
:10468000807841EA00201149C978084342EA106065
:10469000114908601148124900220F4BCDE9002151
:1046A00002900C4A0A490F4830F0F2FF0D4831F0F1
:1046B00061FA0C4831F09EFB0B490A4831F0C6FA0A
:1046C0000EBD000050C1012054C1012058C101207D
:1046D00044C1012048C101204CC101206951020898
:1046E00009540208484E01200153020810B5094838
:1046F000007828B90848FCF76FFC35F06BFF10BD57
:10470000054810F0CBFE35F065FF0348FCF764FC6C
:1047100000BFF4E71CC10120484E012010B50B4832
:104720000B4908604FF4E13048600021084881607F
:10473000C16001610C21416100218161C161FFF70C
:1047400041FA08B1FCF744FC10BD00000010014024
:10475000ACD4012000BFFEE700BFFEE770B5FEF756
:1047600051FD054600241DE0114800EBC4004078CF
:10477000B0B10F4800EBC4004068281AB0F57A7F4A
:104780000ED300200A4901EBC4014870084901EB2F
:10479000C4018870064810F8341006A001F0C6F96C
:1047A000601CC4B20A4800788442DDDB70BD0000A2
:1047B00098D301205B4E4D5D204E6F6465203078AC
:1047C00025303258204F46464C494E450D0A0000D0
:1047D0000EC0012010B580210948FBF76EFD0020B6
:1047E00008490870084908700120084908700849FC
:1047F000087040F20152012106A001F097F910BDA6
:1048000098D301200EC001200DC001200CC0012052
:1048100014C001205B4E4D5D20496E697469616C66
:10482000697A65642E204E6F646549443D30782571
:104830003032582043414E49443D30782530336C66
:10484000580D0A0010B5FEF7DDFC0446FFF786FFA1
:104850000C48007820B1012808D002280FD10DE0C3
:1048600000F070F801200749087008E00648006869
:10487000201AC82801D300F065F800E000BF00BF8F
:1048800010BD00000DC0012010C001202DE9F04135
:1048900005460F46B5F5A06F02D3B5F5A26F01D35B
:1048A000BDE8F081EEB2012E00D1F9E7304631F0DB
:1048B0003DFB044604B9F3E7387800F00100A0702E
:1048C000FEF7A0FC60606078E8B9012060703146B6
:1048D0000EA001F02BF94FF0000800200AE0154966
:1048E00001EBC001497819B108F1010101F0FF089D
:1048F000411CC8B2104909788842F0DB41460FA03C
:1049000001F014F900BF00BFCAE700005B4E4D5D27
:10491000204E6F646520307825303258204F4E4C41
:10492000494E4520286F6E6C696E65206E6F646518
:10493000733A200098D301200EC001202564290D70
:104940000A00000000B589B000200190029040F2FA
:1049500001500390002004900590069008200790D5
:1049600000208DF820001548007808B1012000E0F3
:1049700000208DF8040001208DF805006B4601AA87
:1049800003A90F48FDF73FF920B10EA001F0CEF8C2
:1049900009B000BDFEF736FC1249086012480078E5
:1049A00048B1002010490870C823012240F201518B
:1049B0000EA001F0BBF800BFEAE700000CC0012028
:1049C00034D401205B4E4D5D205458206572726FC7
:1049D0007220286D61696C626F782066756C6C3F1F
:1049E000290D0A0010C0012014C001205B4E4D5D4E
:1049F00020537461727465642E2049443D307825DB
:104A000030336C58204E6F64653D256420437963D4
:104A10006C653D25646D730D0A000000704770B52C
:104A200004460D4605B104B970BD26782E2E43D03C
:104A300010DC192E2CD006DC102E1AD0112E1DD011
:104A4000142E5CD11FE0222E27D0272E2AD0282E0C
:104A500055D12CE0372E4DD006DC312E31D0342EFE
:104A600046D0362E4BD144E03E2E2FD0852E46D157
:104A700039E02946204600F0A7FA45E029462046BD
:104A800000F014FB40E02946204600F033FB3BE0F9
:104A90002946204600F08AFB36E02946204600F0F1
:104AA0006BFC31E02946204600F00AFE2CE0294646
:104AB000204600F0BFFE27E02946204600F0ECFE2D
:104AC00022E02946204600F0A5FF1DE0022D03DB71
:104AD000607800F0800028B900231A4619463E206D
:104AE00000F032F810E02946204600F0F3FF0BE01A
:104AF00000BF00BF2221304600F00AF804E0112177
:104B0000304600F005F800BF00BF00BF8CE77047DB
:104B100038B505460C460A48007820B1214628469B
:104B2000FBF7BEFE38BD07A0006800908DF801506D
:104B30008DF8024003216846FFF728FA00BFF1E72D
:104B40009C0000207F0000002DE9F04706468946C2
:104B500014461D461C480078D8B106F140001B4998
:104B600008704FF00108002D0DDD64B1002008E051
:104B7000235C41464A1C02F0FF08144A5354411C6E
:104B8000C8B2A842F4DB41461048FBF7AFFEBDE8CF
:104B9000F08706F140000E4908700127002D0CDD5A
:104BA0005CB1002007E0235C3A46791CCFB208498B
:104BB0008B54411CC8B2A842F5DB39460448FFF7C4
:104BC000E5F900BFE3E700009C00002098D2012037
:104BD00098D1012010B5FEF71BFB10BD00B593B0B6
:104BE000302107A8FBF769FB142102A8FBF765FB3E
:104BF00000BF002001902448006840F08050224906
:104C000008600846006800F08050019000BF00BFB7
:104C100000BF002001901D48006840F480401B49FF
:104C200008600846006800F48040019000BF00BFA3
:104C3000012007900004089002200D9041050E917C
:104C400004210F91A82110910221119104211291A8
:104C500007A8FEF71BFD08B1FCF7BAF90F20029078
:104C600002200390002004904FF4A05005904FF4D0
:104C700080500690052102A8FEF7C8FB08B1FCF79A
:104C8000A7F913B000BD000040380240007000409A
:104C90000348006840F47000014908607047000054
:104CA00088ED00E000BF00BF02680C3252E8002F20
:104CB00022F4907102680C3242E80013002BF3D109
:104CC00000BF00BF00BF0268143252E8002F22F07C
:104CD00001010268143242E80013002BF3D100BF37
:104CE000016B01290ED100BF00BF02680C3252E8EF
:104CF000002F22F0100102680C3242E80013002B52
:104D0000F3D100BF202180F84210002101637047D9
:104D10002DE9F84F04462068006920F44050E1680E
:104D20000843216808612169A06808436169084354
:104D3000E169084300902068C06849F20C6188432B
:104D4000009908432168C8602068406920F44070D9
:104D5000A16908432168486176492068884203D0E8
:104D600075492068884203D1FEF728FC814602E09D
:104D7000FEF714FC8146E069B0F5004F6CD10220CB
:104D80006168A0FB015003461920A9FB0070014691
:104D90002A463846FBF716FA6421B0FBF1F04FEAD9
:104DA000001A02206168A0FB01510B461920A9FBE3
:104DB00000712A463846FBF705FA834602206168EF
:104DC000A0FB015003461920A9FB00712A46384672
:104DD000FBF7F8F96421B0FBF1F000EBC00101EB47
:104DE0000010ABEB8000322101EBC0006421B0FB6E
:104DF000F1F000F0F8000AEB400A02206168A0FB25
:104E0000015003461920A9FB007001462A46384686
:104E1000FBF7D8F9834602206168A0FB01500346E6
:104E20001920A9FB00712A463846FBF7CBF964210B
:104E3000B0FBF1F000EBC00101EB0010ABEB800028
:104E4000322101EBC0006421B0FBF1F000F007005B
:104E50005044216888606AE004206168A0FB01502A
:104E600003461920A9FB007001462A463846FBF785
:104E7000A9F9824604206168A0FB0150034619206D
:104E8000A9FB007001462A463846FBF79BF96421CE
:104E9000B0FBF1F000EBC00101EB0010AAEB8000C9
:104EA000322101EB00106421B0FBF1F000F0F00AB8
:104EB00004206168A0FB017003461920A9FB005182
:104EC0003A462846FBF77EF96421B0FBF1F00AEB85
:104ED000001A04206168A0FB01510B461920A9FBB0
:104EE00000712A463846FBF76DF983460420616855
:104EF000A0FB015003461920A9FB007001462A4679
:104F00003846FBF75FF96421B0FBF1F000EBC0011C
:104F100001EB0010ABEB8000322101EB00106421AB
:104F2000B0FBF1F000F00F00504421688860BDE84C
:104F3000F88F000000100140001401402DE9F843F3
:104F400004460D4617469846089E31E0701C70B323
:104F5000FEF758F9A0EB0800B04200D816B90320BC
:104F6000BDE8F8832068C06800F00400F8B1802D27
:104F70001ED0402D1CD020680068C0F3C000B0B126
:104F800000BF002000902068006800902068406802
:104F9000009000BF00BF2046FFF784FE0820606439
:104FA00000BF002084F8400000BF0120D8E7FFE7E1
:104FB000206800682840A84201D1012000E00020BC
:104FC000B842C3D00020CBE72DE9FE430746884610
:104FD000B8F1020F05DA13211020FFF799FDBDE8A3
:104FE000FE83787800F07F04322513264FF088097D
:104FF000012C04D0022C09D0032C35D12DE0012046
:105000002449087000202449087032E023A0006879
:1050100001908DF806508DF80760042301AA002145
:105020001020FFF791FD00BF002000901C48006891
:1050300040F080501A4908600846006800F080502F
:10504000009000BF00BFFEF7D3F91648164908606C
:105050001420FDF78BFA00F0AFFD03200D49087016
:1050600000200D49087004E012211020FFF750FDC8
:10507000B5E700BF002002908DF808408DF80A5077
:105080008DF80B60042302AA00211020FFF75CFDBD
:1050900000BFA4E780000020810000200200000083
:1050A00040380240EFBEADDE50280040F8B505465E
:1050B0000E46022E04DA13211120FFF729FDF8BD58
:1050C000687800F07F04012C01D0032C0BD10094F0
:1050D00001236A4600211120FFF736FD1420FDF759
:1050E00045FA00F069FD12211120FFF711FD00BF04
:1050F000E5E700002DE9F04104460F46042F05DAEC
:1051000013211420FFF704FDBDE8F081607800044E
:10511000A17840EA0120E17840EA01066FF07F4083
:1051200086420DD100201F49087040211E48FBF720
:10513000C4F800231A4619461420FFF705FDE3E7DB
:10514000002524E0184850F83500B0421DD128460B
:105150000AE0154901EBC0020B46411C03EBC103F9
:105160000ACB0AC2411CC8B20E490978491E8142C5
:10517000EFDC0C480078401E0A49087000231A46EC
:1051800019461420FFF7E0FCBEE7681CC5B20548CD
:1051900000788542D6DB31211420FFF7B9FC00BF2F
:1051A000B2E7000078000020380000202DE9F0412F
:1051B000C0B005460E466C48007830B9222119204F
:1051C000FFF7A6FC40B0BDE8F081022E04DA1321FF
:1051D0001920FFF79DFCF5E76F78012F04D0022F0F
:1051E00026D0062F74D174E0032E01DBA87800E0EE
:1051F000FF208046002400200AE05C4901EBC0014A
:10520000097901EA080109B1611CCCB2411CC8B29C
:10521000574909788842F0DB56A000683F908DF826
:10522000FF4004233FAA00211920FFF78DFC98E0DE
:10523000032E01DBA87800E0FF2080460024022234
:105240002146641C0DF8012000222146641C0DF843
:1052500001202146641C0DF8012000202DE0434967
:1052600001EBC001097901EA080121B33F4951F876
:105270003010C1F307432146621C94B20DF801308F
:105280003A4931F83010C1F307232146621C94B229
:105290000DF80130354911F830302146621C94B2C6
:1052A0000DF80130314901EBC0010B792146621C38
:1052B00094B20DF80130411CC8B22D4909788842DA
:1052C000CDDBE3B26A4600211920FFF73DFC48E040
:1052D00042E0002406222146641C0DF80120002231
:1052E0002146641C0DF801202146641C0DF80120A4
:1052F000002026E01D4951F83010C1F30743214634
:10530000621C94B20DF80130184931F83010C1F325
:1053100007232146621C94B20DF80130134911F89D
:1053200030302146621C94B20DF801300F4901EB78
:10533000C0010B792146621C94B20DF80130411C6A
:10534000C8B20B4909788842D4DBE3B26A4600212F
:105350001920FFF7F9FB04E012211920FFF7D8FB11
:1053600000BF00BF00BF2DE77900002038000020FB
:105370007800002001000000F0B5A1B004460D4601
:10538000032D05DA13212220FFF7C2FB21B0F0BD67
:10539000A078617840EA01264FF20811701A8E4217
:1053A0007BD009DCA6F57140082877D2DFE800F051
:1053B000495F7B8C9DB3C9DA782870D006DC012860
:1053C0006ED008286DD0092868D11EE1792869D0EF
:1053D000812819D08828F7D1F1208DF80400902079
:1053E0008DF80500002006E0A5490A5C811C01AB90
:1053F0005A54411CC8B21128F6DB132301AA00211C
:105400002220FFF7A1FB38E19E48FAF76DFFC7B2F3
:10541000F1208DF8040089208DF80500002006E0B9
:1054200098490A5C811C01AB5A54411CC8B2B8426D
:10543000F6DBB81CC3B201AA00212220FFF784FBCF
:105440001BE1F1208DF8040000208DF805008E4846
:10545000008800128DF806008B4800788DF8070050
:10546000042301AA00212220FFF76EFB05E1F120B1
:105470008DF8040001208DF8050084480088000A9A
:105480008DF80600814800788DF80700042301AAF2
:1054900000212220FFF758FBEFE074E0E8E0C5E0D0
:1054A00082E092E0D3E0F1208DF8040002208DF834
:1054B0000500774800788DF80600032301AA002133
:1054C0002220FFF741FBD8E0F1208DF804000320F3
:1054D0008DF805006F4800788DF80600032301AAB7
:1054E00000212220FFF730FBC7E0F1208DF80400F7
:1054F00004208DF805006848008800128DF8060029
:10550000654800788DF80700042301AA00212220B5
:10551000FFF71AFBB1E0F1208DF8040005208DF8AB
:1055200005005E48008800128DF806005B48007890
:105530008DF80700042301AA00212220FFF704FBB5
:105540009BE0F1208DF8040006208DF805005448FA
:1055500000788DF80600032301AA00212220FFF71E
:10556000F3FA8AE0F1208DF8040007208DF8050099
:105570004C4800788DF80600032301AA0021222060
:10558000FFF7E2FA79E0F1208DF8040008208DF8A9
:105590000500454800788DF80600032301AA002184
:1055A0002220FFF7D1FA68E0F1208DF804000920ED
:1055B0008DF805003D4800788DF80600032301AA08
:1055C00000212220FFF7C0FA57E0F1208DF80400F7
:1055D00010208DF8050036480068000E8DF8060092
:1055E00033480068000C8DF8070031480088000A35
:1055F0008DF808002E4800788DF80900062301AACE
:1056000000212220FFF7A0FA37E0F1208DF80400F6
:1056100011208DF80500274800788DF80600032337
:1056200001AA00212220FFF78FFA26E0F1208DF851
:10563000040080208DF805001F4800788DF80600D2
:10564000032301AA00212220FFF77EFA15E0F120B2
:105650008DF8040081208DF80500184800788DF839
:105660000600032301AA00212220FFF76DFA04E0BF
:1056700031212220FFF74CFA00BF00BF00BF85E6B2
:105680000E0000202000002000000020020000206A
:105690000400002005000020060000200800002073
:1056A0000A0000200B0000200C0000200D0000204C
:1056B0007C0000207800002034000020350000200D
:1056C0002DE9FC4104460D46022D05DA1321272061
:1056D000FFF71EFABDE8FC816678012E39D14D48EE
:1056E000006868B1FDF78EFD4A490968401A42F228
:1056F0001071884204D237212720FFF709FAE9E721
:1057000000204449086044490870FDF77BFD434987
:10571000484043490860434903C9CDE90001404876
:105720000068000E8DF801003D480068000C8DF8FF
:1057300002003B480088000A8DF8030038480078D2
:105740008DF8040005236A4600212720FFF7FCF9A5
:10575000C0E7022E58D12F48006868B1FDF752FD0E
:105760002C490968401A42F21071884204D237214C
:105770002720FFF7CDF9ADE7002026490860062D68
:1057800004DA13212720FFF7C3F9A3E7A078000666
:10579000E17840EA0140217940EA0120617940EA5C
:1057A00001081F480068C04380F05A301E4947185E
:1057B000B8450FD101201D49087000201649087016
:1057C0001BA000680190012301AA00212720FFF7F8
:1057D000BBF97FE710480078401C0F490870084665
:1057E000007803280BDBFDF70DFD0A490860002057
:1057F0000949087036212720FFF78AF96AE7352121
:105800002720FFF785F965E712212720FFF780F9A8
:1058100000BF5FE78C00002088000020F7E1C3A5EF
:1058200084000020C83D050891BC18368100002086
:1058300002000000F8B506460F46032F04DA1321D4
:105840002820FFF765F9F8BD707800F07F04B5787F
:105850000CB1012C18D11DB900200E49087008E0C8
:10586000032D03D101200B49087002E000200949F3
:1058700008708DF800408DF8015002236A4600211F
:105880002820FFF761F903E012212820FFF740F9F3
:1058900000BFD8E782000020F8B504460D46554801
:1058A0000078012804D033212E20FFF731F9F8BD0C
:1058B000032D04DA13212E20FFF72AF9F7E7A07849
:1058C000617840EA01264FF28011701A8E425DD055
:1058D00009DC6FF471403044002848D0012830D0F2
:1058E000072872D138E001285FD0092816D0102887
:1058F0006BD1142D04DA13212E20FFF709F9D6E716
:10590000002005E0C11C615C3B4A1154411CC8B237
:105910001128F7DB0020384948745BE0E81EC1B26B
:105920000F2900DD0F21002005E0C21CA25C334BD3
:105930001A54421CD0B28842F7DB00202F4A505440
:1059400048E0042D04DA13212E20FFF7E1F8AEE73A
:10595000E0782B4908703DE0042D04DA13212E2055
:10596000FFF7D6F8A3E7E0782649087032E0052D66
:1059700004DA13212E20FFF7CBF898E72079E1789D
:1059800040EA012000B22049088023E0042D04DA17
:1059900013212E20FFF7BCF889E7E07808B1012039
:1059A00000E000201949087014E0042D04DA1321E6
:1059B0002E20FFF7ADF87AE7E07808B1012000E08B
:1059C00000201349087005E0FFE731212E20FFF782
:1059D0009FF86CE700BF30128DF80000F0B28DF830
:1059E000010002236A4600212E20FFF7ADF800BF18
:1059F0005DE70000810000200E0000202000002054
:105A0000040000200C0000200200002034000020D0
:105A100035000020F8B504460D46042D04DA1321A4
:105A20003120FFF775F8F8BD24480078012804D02C
:105A300033213120FFF76CF8F5E76778E078A1783B
:105A400040EA0126012F04D012213120FFF760F82F
:105A5000E9E76FF46040304420B101280CD00228FF
:105A600024D116E016A00068009003236A460021A6
:105A70003120FFF769F81EE064201249087012A077
:105A80000068009003236A4600213120FFF75CF88C
:105A900011E064200D4908700DA0006800900323F8
:105AA0006A4600213120FFF74FF804E03121084613
:105AB000FFF72EF800BF00BF00BFB4E78100002051
:105AC000E001010004000020E002010005000020C8
:105AD000E0030100F8B505460E46022E04DA132154
